:100000000C9434000C9451000C9451000C94510049
:100010000C9451000C9451000C9451000C948C04DD
:100020000C9451000C9451000C9451000C9451000C
:100030000C9451000C9451000C9451000C945100FC
:100040000C9451000C9451000C9451000C945100EC
:100050000C9451000C9451000C9451000C945100DC
:100060000C9451000C94510011241FBECFEFD8E026
:10007000DEBFCDBF11E0A0E0B1E0E6ECFAE002C0E7
:1000800005900D92A036B107D9F721E0A0E6B1E0C6
:1000900001C01D92AA38B207E1F70E945D000C94DE
:1000A00061050C940000CF93DF93CDB7DEB70E94BB
:1000B000C9040000DF91CF910895CF93DF9300D062
:1000C0000F92CDB7DEB71B821A8219824AC089818E
:1000D0008823F1F48981882F90E0880F991F805040
:1000E0009F4FFC01408151818981282F30E06AE2D5
:1000F000629FC001639F900D11249C012E5F3E4FB3
:100100008091560190915701B9010E944B0226C07F
:100110008981882F90E0880F991F80509F4FFC01A4
:10012000408151818981282F30E06AE2629FC001BD
:10013000639F900D1124BC016E5F7E4F8981882FD3
:1001400090E09C0121503109EAE2E29FC001E39F67
:10015000900D11248E5F9E4F0E944B0289818F5F0C
:1001600089838981882309F4B2CF82E091E090935A
:1001700027018093260180915A0190915B019C0197
:1001800048E551E061E070E082E091E00E948E027B
:100190009B838A838A819B81009729F00E940301B7
:1001A0000E94530001C00000FFCFCF93DF93CDB773
:1001B000DEB7F89482EB90E0FC01108283EB90E0D4
:1001C00029EFFC01208380EB90E0FC01208180EB93
:1001D00090E02260FC01208381EB90E0FC01208113
:1001E00081EB90E02460FC01208380E790E0FC013B
:1001F000208180E790E02260FC0120837894000059
:10020000DF91CF910895CF93DF93CDB7DEB70E94F2
:10021000D5000000DF91CF910895CF93DF93CDB744
:10022000DEB728970FB6F894DEBF0FBECDBF8C8324
:100230004D835E836F8378871B82198284C0898196
:10024000882F90E0880F991F825A9E4FFC01808171
:1002500091818B838981882F90E0880F991F825A22
:100260009E4FFC01808191818F3F980771F48981B5
:10027000882F90E02C81222F30E0880F991F825A1E
:100280009E4FFC013183208339C08B81882F90E001
:10029000880F991F880F991F8C579E4FFC018081F2
:1002A0009181A281B3814D815E816F8178854817EC
:1002B00059076A077B0708F042C01A821AC08A8170
:1002C000882F90E09C01215031098A81882F90E08D
:1002D000220F331F225A3E4FF90120813181880FAE
:1002E000991F825A9E4FFC01318320838A8181505D
:1002F0008A839A818981981709F008F78C81882F61
:1003000090E0880F991F880F991F9C012C573E4F32
:100310008D819E81AF81B885F90180839183A2830D
:10032000B3838981882F90E02C81222F30E0880FC1
:10033000991F825A9E4FFC013183208309C000001F
:1003400089818F5F89838981882309F478CF0000B0
:10035000000028960FB6F894DEBF0FBECDBFDF9128
:10036000CF910895CF93DF9300D000D0CDB7DEB703
:1003700081E090E09B838A83198280915E01909155
:100380005F018F3F980709F43FC039C080915E013B
:1003900090915F018983409160015091610160916A
:1003A0006201709163018981882F90E0880F991F05
:1003B000880F991F8C579E4FFC0180819181A281EB
:1003C000B381481759076A077B07B8F08981282F3E
:1003D00030E04AE2429FC001439F900D1124885DA6
:1003E0009E4FFC01118210821C8200008FEF9FEF54
:1003F00090935F0180935E0102C01B821A828A8102
:100400009B81009719F601C000000F900F900F908C
:100410000F90DF91CF910895CF93DF93CDB7DEB7E3
:100420000E94C9040000DF91CF910895CF93DF931C
:1004300000D000D00F92CDB7DEB789834A835B83AB
:100440006C837D83409160015091610160916201F4
:10045000709163018A819B81AC81BD81840F951F5E
:10046000A61FB71FAC01BD0189810E940D018091BB
:1004700056019091570122E030E0FC0137A326A3FA
:100480000E940C0200000F900F900F900F900F90A1
:10049000DF91CF910895CF93DF93CDB7DEB7289743
:1004A0000FB6F894DEBF0FBECDBF9C838B837E83D7
:1004B0006D8358874F838B819C81009739F08B81A6
:1004C0009C812D813E81FC0135A324A38D819E81D9
:1004D0002F813885FC0131A720A78D819E819A83C9
:1004E000898329818D819E81FC01248F89819A8154
:1004F000892F9927282F8D819E81FC01258F8D8141
:100500009E81FC0117A216A2000028960FB6F8944F
:10051000DEBF0FBECDBFDF91CF910895CF93DF93A4
:10052000CDB7DEB766970FB6F894DEBF0FBECDBF6E
:10053000988B8F877A8B698B5C8B4B8B3E8B2D8B4B
:100540002D893E8989899A892817390718F480E00E
:1005500090E095C08F8598899A8389838B899C893F
:10056000FC018081918198878F838B899C89FC0114
:10057000848195819A8789871C821B821E821D82B5
:1005800072C089819A81009709F476C08D819E811D
:10059000AC014F5F5F4F29853A85429FC001439F61
:1005A000900D529F900D112401972F813885280FAF
:1005B000391F89819A81FC013183208389819A8145
:1005C000FC012081318189819A81FC01338322835E
:1005D0008CE593E09C878B878B858D878B859C85AD
:1005E000892F99278E8789819A81FC018281938145
:1005F000AC014150510929813A81F9015383428369
:100600002D85FC01208389819A81FC01828193815F
:10061000AC014150510929813A81F9015383428348
:100620002E85FC01208389819A81FC01828193813E
:10063000AC014150510929813A81F9015383428328
:10064000FC01108289819A81FC0184A195A19A8381
:1006500089838B819C8101969C838B838D819E8174
:1006600001969E838D832B813C818D899E892817DD
:10067000390708F486CF01C0000081E090E066965B
:100680000FB6F894DEBF0FBECDBFDF91CF910895B6
:10069000CF93DF9300D0CDB7DEB79A83898389816A
:1006A0009A8121E030E0FC0137A326A300000F90DF
:1006B0000F90DF91CF910895CF93DF9300D0CDB706
:1006C000DEB79A83898389819A81FC0180A591A5EF
:1006D000FC01099589819A810E944803FFCFCF933D
:1006E000DF9300D000D0CDB7DEB780915601909156
:1006F00057019C838B838091560190915701FC0197
:1007000084A195A19A83898317C089819A81FC016C
:1007100086A197A1009749F489819A819093570106
:100720008093560181E090E010C089819A81FC019C
:1007300084A195A19A8389832B813C8189819A81A7
:100740002817390711F780E090E00F900F900F9075
:100750000F90DF91CF910895CF93DF93CDB7DEB7A0
:100760002A970FB6F894DEBF0FBECDBF98878F8350
:100770007A8769878F819885FC01868197819A8322
:1007800089838F819885FC01808191819C838B83F3
:100790008F819885FC01828193819E838D838D81D9
:1007A0009E8101962B813C812817390718F480E03F
:1007B00090E03AC02F81388589819A810496880F0C
:1007C000991F820F931F29853A85FC01318320836D
:1007D0008F819885FC01828193819C012F5F3F4F1F
:1007E0008F819885FC01338322838F819885FC015A
:1007F000868197819C012F5F3F4F8F819885FC01F7
:10080000378326838F819885FC01868197812B8190
:100810003C81B9010E944D059C018F819885FC01A6
:100820003783268381E090E02A960FB6F894DEBFE6
:100830000FBECDBFDF91CF910895CF93DF93CDB79A
:10084000DEB728970FB6F894DEBF0FBECDBF9887EE
:100850008F838F819885FC01848195819A83898318
:100860008F819885FC01828193819C838B838B810E
:100870009C81009719F480E090E028C08F819885D2
:10088000FC0184819581AC014F5F5F4F2F813885DA
:10089000F901558344832F8138850496880F991F69
:1008A000820F931FFC01808191819E838D838F81B4
:1008B0009885FC01828193819C01215031098F81AF
:1008C0009885FC01338322838D819E8128960FB603
:1008D000F894DEBF0FBECDBFDF91CF910895CF93C7
:1008E000DF93CDB7DEB745E050E060E070E080E038
:1008F0000E9416024AE050E060E070E080E00E9452
:10090000160245E050E060E070E080E00E941602D0
:100910000000DF91CF910895FF93EF93DF93CF9382
:10092000BF93BFB71F921124C0916001D0916101A4
:10093000E0916201F09163012196E11DF11DC093E8
:100940006001D0936101E0936201F0936301C09173
:100950009009C33059F0C395C0939009BFBF1F9051
:10096000BF91CF91DF91EF91FF911895109290096F
:10097000BFBF1F90BF91CF91DF91EF91FF91F09397
:100980009109F9ECFF93F4E0FF93F0919109189528
:100990000000FF93EF93DF93CF93DFB7E0918901DE
:1009A000E03031F0DFBFCF91DF91EF91FF910895FB
:1009B000DF93EEEDF4E0EF93FF930895F894EF6F7B
:1009C000E09389017894C0915601D09157010C822F
:1009D0001D8211240F902E823F82488659866A8696
:1009E0007B868C869D86AE86BF86C88AD98AEA8A2F
:1009F000FB8A0C8B1D8B2E8B3F8B488F598F6A8FF8
:100A00007B8F8C8F9D8FAE8FBF8F8F9188A38F919F
:100A100089A38F918AA38F918BA30F920DB60A821F
:100A20000EB60B820E94B2010E946F03892BD1F394
:100A3000C0915601D09157010A800DBE0B800EBEA9
:100A40000F900FBE0C801D802E803F8048845984FB
:100A50006A847B848C849D84AE84BF84C888D98852
:100A6000EA88FB880C891D892E893F89488D598D1C
:100A70006A8D7B8D8C8D9D8DAE8DBF8DEAA1FBA186
:100A8000EF93FF93E8A1F9A1EF01FF91F894E0E063
:100A9000E0938901EF9178940895AA1BBB1B51E163
:100AA00007C0AA1FBB1FA617B70710F0A61BB70BDE
:100AB000881F991F5A95A9F780959095BC01CD0183
:060AC0000895F894FFCF39
:100AC6006F040000000000000000000000000000AD
:100AD6000000000000000000000000000000000010
:100AE600000000000000020100006F04000000008A
:100AF60000000000000000000000000000000000F0
:100B060000000000000000000000000000000000DF
:100B16000000010000002C01640101002000FFFF1D
:00000001FF
