:100000000C9434000C9451000C9451000C94510049
:100010000C9451000C9451000C9451000C940E025D
:100020000C9451000C9451000C9451000C9451000C
:100030000C9451000C9451000C9451000C945100FC
:100040000C9451000C9451000C9451000C945100EC
:100050000C9451000C9451000C9451000C945100DC
:100060000C9451000C94510011241FBECFEFD8E026
:10007000DEBFCDBF11E0A0E0B1E0EEEDF7E002C0E1
:1000800005900D92A830B107D9F721E0A8E0B1E0C2
:1000900001C01D92A831B207E1F70E94C6030C947B
:1000A000ED030C9400002F923F924F925F926F925B
:1000B0007F928F929F92AF92BF92CF92DF92EF92F8
:1000C000FF920F931F93CF93DF93CDB7DEB7E197E6
:1000D0000FB6F894DEBF0FBECDBF282E3B016A01DC
:1000E0002DB73EB739AB28AB34E0381708F4A7C0BA
:1000F00081E08FA319A618A6CE010196909309015D
:1001000080930801E22CF12C270181E0481A510864
:1001100099E2299EA0011124EDB7FEB7E41BF50B6F
:100120000FB6F894FEBF0FBEEDBF0DB71EB70F5F41
:100130001F4F70E060E0C8010E94E60343015801D0
:10014000312C321061C0A0910801B091090195963F
:100150001C930E93949789E2849DF001859DF00D88
:100160001124E00FF11F15A304A3B0930D01A09378
:100170000C0137E0339EA00111248DB79EB7841B7C
:10018000950B0FB6F8949EBF0FBE8DBFEDB7FEB7AF
:1001900031965F0170E060E0CF010E94E603B0920B
:1001A0001501A0921401F0921301E0921201EC9C4F
:1001B000A001ED9C500DFC9C500D11242DB73EB7B5
:1001C000241B350B0FB6F8943EBF0FBE2DBF8DB765
:1001D0009EB701965C0170E060E00E94E603BBA65A
:1001E000AAA6FDA6ECA6DFA6CEA69701AE01465DA7
:1001F0005F4FB701C8010E94A401892B01F10E9441
:10020000F7010E942703FFCF311012C0F301408194
:100210005181B80180910C0190910D010E949601CD
:100220003394F2E08F0E911C29E2A20EB11C89CF0B
:10023000F40140815181B501C5018997EFCF90E06C
:1002400080E0E8A9F9A90FB6F894FEBF0FBEEDBF94
:10025000E1960FB6F894DEBF0FBECDBFDF91CF9110
:100260001F910F91FF90EF90DF90CF90BF90AF90D4
:100270009F908F907F906F905F904F903F902F90C6
:100280000895259A2D9A68EE73E080E090E00E9430
:100290004B022D9868EE73E080E090E00E944B02E4
:1002A000F1CF249A2C9868EE73E080E090E00E94F1
:1002B0004B022C9A68EE73E080E090E00E944B02C3
:1002C000F1CF239A2B9A6AEF70E080E090E00E94D1
:1002D0004B022B986AEF70E080E090E00E944B02A6
:1002E0002B9A6AEF70E080E090E00E944B022B981E
:1002F00068EE73E080E090E00E944B02E3CF229A28
:100300002A9A64EF71E080E090E00E944B022A9804
:1003100064EF71E080E090E00E944B02F1CFEC01CD
:10032000EFA1F8A5099581E08EA3FFCFDC01FB01C9
:10033000892B21F095967C936E93949747A350A7B1
:10034000F58FE48F16A20895EF92FF920F931F93FB
:10035000CF93DF93FC01DA01C90126173707D0F1EB
:1003600014964D915C9115976FE871E0172F9A01E3
:10037000215031090D90BC91A02DA20FB31F30E088
:1003800020E02817390719F481E090E025C0309764
:10039000D9F32F5F3F4FB183A083ED012197D38322
:1003A000C2836C93C281D3817E0101E0E01AF1081F
:1003B000F382E2821883C281D3817E0101E0E01AD8
:1003C000F108F382E282188204A0F5A1E02DA40FC7
:1003D000B51FD7CF90E080E0DF91CF911F910F91B3
:1003E000FF90EF90089521E0FC0126A30895F89472
:1003F0001092B20089EF8093B300E0EBF0E08081CF
:1004000082608083E1EBF0E0808184608083E0E7BC
:10041000F0E080818260808378940895FF93EF9369
:10042000DF93CF93BF93BFB71F921124C0910E01EA
:10043000D0910F01E0911001F09111012196E11D81
:10044000F11DC0930E01D0930F01E0931001F093C2
:100450001101C0919404C33059F0C395C093940422
:10046000BFBF1F90BF91CF91DF91EF91FF91189582
:1004700010929404BFBF1F90BF91CF91DF91EF9175
:10048000FF91F0939504F7E2FF93F3E0FF93F0916F
:10049000950418950000CF93DF9300D000D0CDB71E
:1004A000DEB769837A838B839C8340910E015091E0
:1004B0000F01609110017091110189819A81AB81C6
:1004C000BC81480F591F6A1F7B1F80910C019091BE
:1004D0000D010E947A02E0910C01F0910D0182E081
:1004E00086A30E9427030F900F900F900F90DF912B
:1004F000CF910895CF92DF92EF92FF920F931F93C7
:10050000CF93DF938A019B01409112015091130117
:10051000C0911401D0911501FE0170E060E0461712
:10052000570761F0DF01F680F11011C000831183DD
:10053000228333838483958381E08683DF91CF9107
:100540001F910F91FF90EF90DF90CF900895379615
:10055000CD90DD90ED90FC9013970C151D052E05A8
:100560003F0568F5E7E0FE2EF49EF001F59EF00DE4
:1005700011243E97EC0FFD1FC080D180E280F380F4
:10058000C782D086E186F286C481D581D487C387AD
:10059000C681C5874150510937976417750760F3C5
:1005A0000D931D932D933C93139714968C9314974E
:1005B00015969C93159781E016968C93BFCF6F5F2D
:1005C0007F4FADCFCF92DF92EF92FF9240910E011D
:1005D00050910F016091100170911101E09114018F
:1005E000F091150180819181A281B381481759074B
:1005F0006A077B0780F08681813069F420911201BF
:1006000030911301B90161507109379790E080E092
:100610002817390729F4FF90EF90DF90CF900895C5
:10062000C780D084E184F284C082D182E282F382E6
:10063000438554855583448345854683442359F334
:100640006817790709F4158601963796E1CFFF936D
:10065000EF93DF93CF93DFB7E0911701E03031F0F4
:10066000DFBFCF91DF91EF91FF910895DF93ECE32E
:10067000F3E0EF93FF930895F894EF6FE093170181
:100680007894C0910C01D0910D010C821D8211242F
:100690000F902E823F82488659866A867B868C869A
:1006A0009D86AE86BF86C88AD98AEA8AFB8A0C8B69
:1006B0001D8B2E8B3F8B488F598F6A8F7B8F8C8F32
:1006C0009D8FAE8FBF8F8F9188A38F9189A38F91BC
:1006D0008AA38F918BA30F920DB60A820EB60B825E
:1006E0000E94E20280910C0190910D01A0910C01F9
:1006F000B0910D019496ED91FC91E0930C01F09373
:100700000D01959776A1711551F004A0F5A1E02D8A
:10071000E817F90759F781E080931601E1CF1092AD
:100720001601C0910C01D0910D010A800DBE0B8005
:100730000EBE0F900FBE0C801D802E803F8048841F
:1007400059846A847B848C849D84AE84BF84C888E9
:10075000D988EA88FB880C891D892E893F89488DB4
:10076000598D6A8D7B8D8C8D9D8DAE8DBF8DEAA14F
:10077000FBA1EF93FF93E8A1F9A1EF01FF91F8949A
:10078000E0E0E0931701EF9178940895CDB7DEB7DC
:1007900028970FB6F894DEBF0FBECDBF88E0E0E02B
:1007A000F1E0DE01119601900D928A95E1F740E4A7
:1007B00050E0BE016F5F7F4F84E00E945300289697
:1007C0000FB6F894DEBF0FBECDBF0895DC0101C0A7
:0E07D0006D9341505040E0F70895F894FFCF2C
:0807DE004101510161017F019D
:00000001FF
