:100000000C9434000C9451000C9451000C94510049
:100010000C9451000C9451000C9451000C94000469
:100020000C9451000C9451000C9451000C9451000C
:100030000C9451000C9451000C9451000C945100FC
:100040000C9451000C9451000C9451000C945100EC
:100050000C9451000C9451000C9451000C945100DC
:100060000C9451000C94510011241FBECFEFD8E026
:10007000DEBFCDBF11E0A0E0B1E0E6E7FEE002C0E8
:1000800005900D92AE30B107D9F721E0AEE0B1E0B6
:1000900001C01D92A032B207E1F70E947D020C94CC
:1000A00039070C940000CF93DF93CDB7DEB70E94E1
:1000B00031050000DF91CF910895CF92DF92EF924A
:1000C000FF920F931F93CF93DF93CDB7DEB7EF97D8
:1000D0000FB6F894DEBF0FBECDBF8BAF7DAF6CAF58
:1000E0005FAF4EAF0DB71EB78DB79EB77C018BAD1E
:1000F000853018F080E090E019C11B821A8281E0FF
:100100008AAB1CAA1BAACE010C9690931301809374
:1001100012012BAD822F90E001979D838C83222FBB
:1001200030E049E2429FC001439F900D11242DB75A
:100130003EB7281B390B0FB6F8943EBF0FBE2DBF3C
:100140008DB79EB701969F838E838BAD882F90E0ED
:1001500049E2489F9001499F300D11248E819F8173
:10016000A90160E070E00E943207198253C08981C2
:10017000882309F58981882F90E0880F991F2CAD7D
:100180003DAD820F931FFC01408151818981282F51
:1001900030E069E2629FC001639F900D11242E81BF
:1001A0003F81280F391F80910E0190910F01B901F5
:1001B0000E94A9022CC08981882F90E0880F991F86
:1001C0002CAD3DAD820F931FFC014081518189818F
:1001D000282F30E069E2629FC001639F900D1124D7
:1001E0002E813F81B901680F791F8981882F90E0A6
:1001F0009C0121503109E9E2E29FC001E39F900D8B
:1002000011242E813F81820F931F0E94A9028981B0
:100210008F5F898399818BAD981708F4A8CF80915F
:100220001201909113012E813F81FC0135A324A37B
:100230008BAD882F90E0BC01615071092E813F8108
:100240004E815F81E9E2E69FC001E79F900D112496
:10025000840F951F8496FC013183208380911201C5
:100260009091130190930F0180930E018BAD482F55
:1002700050E02EAD3FAD429FC001439F900D529F75
:10028000900D11242DB73EB769019C012150310911
:10029000398728872DB73EB7281B390B0FB6F8943E
:1002A0003EBF0FBE2DBF8DB79EB701969B878A8735
:1002B0008BAD282F30E08EAD9FAD289FA001299FE8
:1002C000500D389F500D11248A859B8560E070E0A9
:1002D0000E9432078A859B859EAB8DAB8BAD882FA4
:1002E00090E098AF8FAB8EAD9FAD9AAF89AF2FA93D
:1002F00038AD8BAD682F70E08E819F81AE014B5C75
:100300005F4F0E94EB029B838A838A819B81892BAA
:1003100029F00E94CA030E945300FFCF000080E032
:1003200090E00FB6F894DEBE0FBECDBE0FB6F894C7
:10033000FEBE0FBEEDBE0FB6F8941EBF0FBE0DBFC2
:10034000EF960FB6F894DEBF0FBECDBFDF91CF9111
:100350001F910F91FF90EF90DF90CF900895CF9372
:10036000DF93CDB7DEB784E290E024E230E0F9011C
:1003700020812062FC01208385E290E025E230E0CC
:10038000F90120812062FC01208368EE73E080E0A7
:1003900090E00E94470485E290E025E230E0F90118
:1003A00020812F7DFC01208368EE73E080E090E0E7
:1003B0000E944704E1CFCF93DF93CDB7DEB784E24D
:1003C00090E024E230E0F90120812061FC012083EB
:1003D00085E290E025E230E0F90120812F7EFC01EA
:1003E000208368EE73E080E090E00E94470485E29D
:1003F00090E025E230E0F90120812061FC012083BA
:1004000068EE73E080E090E00E944704E1CFCF9374
:10041000DF93CDB7DEB784E290E024E230E0F9016B
:1004200020812860FC01208385E290E025E230E015
:10043000F90120812860FC0120836AEF70E080E0F0
:1004400090E00E94470485E290E025E230E0F90167
:100450002081277FFC0120836AEF70E080E090E03C
:100460000E94470485E290E025E230E0F901208116
:100470002860FC0120836AEF70E080E090E00E9439
:10048000470485E290E025E230E0F9012081277FF2
:10049000FC01208368EE73E080E090E00E94470456
:1004A000C3CFCF93DF93CDB7DEB784E290E024E2F1
:1004B00030E0F90120812460FC01208385E290E096
:1004C00025E230E0F90120812460FC01208364EF03
:1004D00071E080E090E00E94470485E290E025E230
:1004E00030E0F90120812B7FFC01208364EF71E073
:1004F00080E090E00E944704E1CFCF93DF93CDB737
:10050000DEB72B970FB6F894DEBF0FBECDBF1A82B1
:10051000198288E0E6E0F1E0DE01149601900D9288
:100520008A95E1F784E08B83CE01049640E450E0A5
:10053000BC018B810E945D009A83898389819A81A5
:100540002B960FB6F894DEBF0FBECDBFDF91CF91D3
:100550000895CF93DF93CDB7DEB728970FB6F89401
:10056000DEBF0FBECDBF9C838B837E836D83588798
:100570004F838B819C81892B39F08B819C812D81CC
:100580003E81FC0135A324A38D819E812F81388576
:10059000FC0130A727A38D819E819A8389832981BD
:1005A0008D819E81FC01248F89819A81892F9927D1
:1005B000282F8D819E81FC01258F8D819E81FC01DC
:1005C00016A2000028960FB6F894DEBF0FBECDBF6E
:1005D000DF91CF910895CF93DF93CDB7DEB76697C4
:1005E0000FB6F894DEBF0FBECDBF988B8F877A8B86
:1005F000698B5C8B4B8B3E8B2D8B2D893E8989893A
:100600009A892817390718F480E090E095C08F8503
:1006100098899A8389838B899C89FC018081918147
:1006200098878F838B899C89FC01848195819A8727
:1006300089871C821B821E821D8272C089819A81D9
:10064000892B09F476C08D819E81AC014F5F5F4F8D
:1006500029853A85429FC001439F900D529F900D7E
:10066000112401972F813885280F391F89819A819C
:10067000FC013183208389819A81FC0120813181B1
:1006800089819A81FC013383228387EB93E09C87E5
:100690008B878B858D878B859C85892F99278E8766
:1006A00089819A81FC0182819381AC014150510979
:1006B00029813A81F901538342832D85FC012083EE
:1006C00089819A81FC0182819381AC014150510959
:1006D00029813A81F901538342832E85FC012083CD
:1006E00089819A81FC0182819381AC014150510939
:1006F00029813A81F90153834283FC011082898167
:100700009A81FC0184A195A19A8389838B819C8124
:1007100001969C838B838D819E8101969E838D8320
:100720002B813C818D899E892817390708F486CF53
:1007300001C0000081E090E066960FB6F894DEBF3D
:100740000FBECDBFDF91CF910895CF93DF9300D03F
:10075000CDB7DEB79A83898389819A8121E0FC0134
:1007600026A300000F900F90DF91CF910895CF93B3
:10077000DF9300D0CDB7DEB79A83898389819A81D0
:10078000FC0187A190A5FC01099589819A810E94AD
:10079000A503FFCFCF93DF93CDB7DEB7F89480EBFF
:1007A00090E0FC01108281EB90E0FC01108282EB72
:1007B00090E0FC01108283EB90E029EFFC012083A4
:1007C00080EB90E020EB30E0F90120812260FC0119
:1007D000208381EB90E021EB30E0F901208124605F
:1007E000FC01208380E790E020E730E0F9012081E0
:1007F0002260FC01208378940000DF91CF9108955E
:10080000FF93EF93DF93CF93BF93BFB71F92112452
:10081000C0911401D0911501E0911601F0911701DA
:100820002196E11DF11DC0931401D0931501E093B1
:100830001601F0931701C0917808C33059F0C395A1
:10084000C0937808BFBF1F90BF91CF91DF91EF9108
:10085000FF91189510927808BFBF1F90BF91CF915C
:10086000DF91EF91FF91F0937908F1E3FF93F5E0C9
:10087000FF93F091790818950000CF93DF93CDB7DF
:10088000DEB70E9431050000DF91CF910895CF932C
:10089000DF9300D000D000D0CDB7DEB76B837C8370
:1008A0008D839E8320911401309115014091160192
:1008B000509117018B819C81AD81BE81820F931F66
:1008C000A41FB51F20910E0130910F01AC01BD0195
:1008D000C9010E9488049A83898389819A81892B1E
:1008E00019F480E090E00BC080910E0190910F010F
:1008F00022E0FC0126A30E943D0481E090E02696C0
:100900000FB6F894DEBF0FBECDBFDF91CF91089533
:10091000CF93DF93CDB7DEB72C970FB6F894DEBF39
:100920000FBECDBF98878F8349875A876B877C8797
:1009300068E070E081E090E00E94F5059E838D8381
:100940008D819E81892B19F480E090E081C02D81FA
:100950003E8189859A85AB85BC85F9018083918329
:10096000A283B3838D819E812F813885FC013583DD
:1009700024831A8219821C821B8280911801909113
:100980001901892B49F48D819E81909319018093DF
:10099000180181E090E05CC08091180190911901EC
:1009A000FC0186819781892B61F4809118019091D7
:1009B00019012D813E81FC013783268381E090E07F
:1009C00047C080911801909119019A8389833AC098
:1009D00089819A81FC0120813181428153818D81FD
:1009E0009E81FC0180819181A281B381821793074E
:1009F000A407B507E0F48D819E8129813A81FC012D
:100A0000378326838B819C81892B39F48D819E814C
:100A1000909319018093180107C08B819C812D81CF
:100A20003E81FC013783268381E090E011C08981FB
:100A30009A819C838B8389819A81FC01868197812D
:100A40009A83898389819A81892B11F681E090E0CC
:100A50002C960FB6F894DEBF0FBECDBFDF91CF91BD
:100A60000895FF93EF93DF93CF93DFB7E0911B01DE
:100A7000E03031F0DFBFCF91DF91EF91FF9108952A
:100A8000DF93E6E4F5E0EF93FF930895F894EF6FBA
:100A9000E0931B017894C0910E01D0910F010C825C
:100AA0001D8211240F902E823F82488659866A86C5
:100AB0007B868C869D86AE86BF86C88AD98AEA8A5E
:100AC000FB8A0C8B1D8B2E8B3F8B488F598F6A8F27
:100AD0007B8F8C8F9D8FAE8FBF8F8F9188A38F91CF
:100AE00089A38F918AA38F918BA30F920DB60A824F
:100AF0000EB60B8280911801909119018115910514
:100B000021F14091140150911501609116017091ED
:100B10001701DC010D911D912D913C911397401708
:100B200051076207730768F0FD01C681D781D09332
:100B30001901C0931801C481D5811EA2CF010E9462
:100B4000A90680910E0190910F01A0910E01B09124
:100B50000F019496ED91FC91E0930E01F0930F013B
:100B6000959776A1711551F004A0F5A1E02DE81735
:100B7000F90759F781E080931A01BCCF10921A014E
:100B8000C0910E01D0910F010A800DBE0B800EBEE8
:100B90000F900FBE0C801D802E803F8048845984AA
:100BA0006A847B848C849D84AE84BF84C888D98801
:100BB000EA88FB880C891D892E893F89488D598DCB
:100BC0006A8D7B8D8C8D9D8DAE8DBF8DEAA1FBA135
:100BD000EF93FF93E8A1F9A1EF01FF91F894E0E012
:100BE000E0931B01EF91789408950F931F93CF9397
:100BF000DF93869F8001879F100D969F100D112413
:100C0000C8010E941106EC01009729F0A80160E0DC
:100C100070E00E943207CE01DF91CF911F910F91BA
:100C200008950F931F93CF93DF938230910510F4B3
:100C300082E090E0E0911E01F0911F0120E030E0A1
:100C4000A0E0B0E0309719F1408151810281138119
:100C500048175907C8F08417950769F4109731F0C1
:100C600012960C93129713961C9327C000931E01A3
:100C700010931F0122C02115310519F042175307A7
:100C800018F49A01BD01EF01DF01F801DBCF211556
:100C90003105F9F0281B390B2430310580F48A81A5
:100CA0009B816115710521F0FB019383828304C050
:100CB00090931F0180931E01FE01329644C0FE01F5
:100CC000E20FF31F819391932250310939832883D6
:100CD0003AC020911C0130911D01232B41F4209139
:100CE00002013091030130931D0120931C012091DA
:100CF0000001309101012115310541F42DB73EB7B6
:100D00004091040150910501241B350BE0911C0119
:100D1000F0911D01E217F307A0F42E1B3F0B2817DB
:100D2000390778F0AC014E5F5F4F2417350748F064
:100D30004E0F5F1F50931D0140931C0181939193AF
:100D400002C0E0E0F0E0CF01DF91CF911F910F9161
:100D50000895CF93DF93009709F481C0FC01329787
:100D600013821282A0911E01B0911F01109781F48D
:100D700020813181820F931F20911C0130911D0130
:100D80002817390751F5F0931D01E0931C0167C046
:100D9000ED0120E030E0CE17DF0740F44A815B81AF
:100DA0009E0141155105F1F0EA01F5CFD383C283CD
:100DB00040815181840F951FC817D90759F4888144
:100DC0009981840F951F0296918380838A819B81EC
:100DD000938382832115310529F4F0931F01E09359
:100DE0001E013DC0E901FB83EA8349915991C40F7B
:100DF000D51FEC17FD0761F480819181840F951F49
:100E00000296E90199838883828193819B838A83F7
:100E1000E0E0F0E012968D919C911397009719F005
:100E2000FD01DC01F7CF8D919C9111979D012E5F03
:100E30003F4F820F931F20911C0130911D012817F5
:100E4000390769F4309729F410921F0110921E019E
:100E500002C013821282B0931D01A0931C01DF9186
:100E6000CF910895DC0101C06D9341505040E0F7EF
:060E70000895F894FFCF85
:0E0E7600000020012000AF01DB010702510245
:00000001FF
