:100000000C9434000C9451000C9451000C94510049
:100010000C9451000C9451000C9451000C945719FD
:100020000C9451000C9451000C9451000C9451000C
:100030000C9451000C9451000C9433010C94510019
:100040000C9451000C9451000C9451000C945100EC
:100050000C9451000C9451000C9451000C945100DC
:100060000C9451000C94510011241FBECFEFD8E026
:10007000DEBFCDBF12E0A0E0B1E0E4E5F5E302C0F1
:1000800005900D92AE33B107D9F724E0AEE3B2E0AC
:1000900001C01D92A93BB207E1F70E94181A0C9407
:1000A0007C1A0C940000F8941092B20089EF8093AF
:1000B000B300E0EBF0E0808182608083E1EBF0E070
:1000C000808184608083E0E7F0E0808182608083CB
:1000D00078940895F89416BC82E387BD14BC84B567
:1000E000826084BD85B5836085BDEEE6F0E08081E9
:1000F00082608083789408950E9482000E946A0042
:100100000C945300CF92DF92EF92FF9220E831E0FF
:1001100080E090E050E044E06FE0689FF001699F6C
:10012000F00D1124E058FE4FA385B4851197E1F43A
:10013000C180D280E380F480C582D682E782F086D7
:10014000E52FF0E0EE0FFF1FE15CFD4F31832083D0
:100150005F5F0196215F3F4F85309105F1F6FF907B
:10016000EF90DF90CF9008950384F485E02DEF2B7E
:1001700081F7E42FF0E0EE0FFF1FE15CFD4F3183CC
:1001800020834150E6CFEF92FF920F931F93CF93BE
:10019000DF93DC01CFE3D2E080E0E991F9912385A0
:1001A0003485E82F81E08E0F232B19F08530A9F7D5
:1001B000E5E081E08E0FF0E0EE0FFF1FE15CFD4F08
:1001C0007F0141E050E0853038F0DF91CF911F9101
:1001D0000F91FF90EF90089522813381E9016881AA
:1001E0009C91691317C0E70168817981398328835D
:1001F000738362831C965C934E931B9711960D91AB
:100200001D912D913C91149715960D931D932D934F
:100210003C9318978F5F3296D6CFCF93DF93EC0144
:10022000EFE3F2E020E0A191B1913C91988181E06F
:10023000820F391731F0282F8530A9F7DF91CF9140
:10024000089590E0880F991F46E0421B50E0BC01E2
:10025000615C7D4F835C9D4F0E94611AD093480280
:10026000C0934702EBCF1F920F920FB60F9211244B
:100270002F933F934F935F936F937F938F939F93AE
:10028000AF93BF93CF93DF93EF93FF9380913E02A1
:100290008F5F80933E0265E00E943B1A90933E027E
:1002A00080913E02811163C0CFE3D2E0E991F991E0
:1002B00083859485892B09F45AC085819681A7810D
:1002C000B0850197A109B10985839683A783B0877B
:1002D00085819681A781B085892B8A2B8B2B09F08C
:1002E00041C081859285019741F481819281A381EA
:1002F000B48185839683A783B08780910201909112
:10030000030120910001309101010196281739075E
:1003100070F1809106019091070125853685FC01D9
:10032000EE0FFF1FE85FFE4F3183208380910201B3
:1003300090910301019690930301809302018091B3
:1003400006019091070101969093070180930601A1
:1003500060910001709101010E94471A909307017A
:100360008093060182E0C934D80709F09FCF8091BD
:10037000020190910301892B49F180910201909132
:10038000030101979093030180930201E09104011E
:10039000F0910501EE0FFF1FE85FFE4F8081918114
:1003A000892BA1F080910401909105019C012F5FA0
:1003B0003F4F3093050120930401880F991FFC01E2
:1003C000E85FFE4F0190F081E02D0995FF91EF91DC
:1003D000DF91CF91BF91AF919F918F917F916F915D
:1003E0005F914F913F912F910F900FBE0F901F90F3
:1003F00018958CE284B981E58CBD2A982A9A8DB52E
:100400008EB508958EBD0DB407FEFDCF8EB508954F
:100410000895FB0180810895FB01408308952A9887
:100420008FEF0E9402022A9A08952A980E940202DF
:100430002A9A08950F931F93CF93DF932A98EC0184
:100440008C01060F171FC017D10731F42A9ADF91CC
:10045000CF911F910F9108958FEF0E94020289930F
:10046000F2CF0F931F93CF93DF932A98EC018C0167
:10047000060F171FC017D10731F42A9ADF91CF91C9
:100480001F910F91089589910E940202F3CF089560
:10049000089508959C01CB012115310511F00097B5
:1004A00021F428E032E088E492E030931D012093AB
:1004B0001C0190931F0180931E0108959C01CB01A4
:1004C0002115310511F0009721F429E432E087E489
:1004D00092E0309321012093200190932301809397
:1004E000220108959C01CB0140911201509113010A
:1004F00050FFFFCF2115310511F0009721F429E0BD
:1005000032E08CE092E03093250120932401909317
:1005100027018093260108959C01CB01409112018F
:100520005091130151FFFFCF2115310511F00097B4
:1005300021F42FE032E085E192E030932501209311
:100540002401909327018093260108959C01CB01FB
:10055000409112015091130151FFFFCF2115310538
:1005600011F0009721F42AE132E081E392E0309328
:1005700029012093280190932B0180932A0108954B
:10058000CF93DF93CDB7DEB762970FB6F894DEBF97
:100590000FBECDBF26E030E0AE014F5F5F4F60E0A1
:1005A00079E080E090E00E942B0824E030E0AE018A
:1005B000415F5F4F60E071E080E090E00E942B08B7
:1005C00024E030E0AE01455F5F4F60E075E080E021
:1005D00090E00E942B0824E030E0AE01495F5F4FBD
:1005E00060E07FE080E090E00E942B0840E860E05F
:1005F00070E0CB010E94C00760E070E0CB010E9478
:10060000570726E030E0AE014F5F5F4F60E079E0D2
:1006100080E090E00E94AD0824E030E0AE01415F50
:100620005F4F60E071E080E090E00E94AD0824E060
:1006300030E0AE01455F5F4F60E075E080E090E044
:100640000E94AD0824E030E0AE01495F5F4F60E0FA
:100650007FE080E090E00E94AD0862960FB6F894CB
:10066000DEBF0FBECDBFDF91CF910895CF92DF9255
:10067000EF92FF920F931F93CF93DF938C01EB01C7
:100680000E94C0020115110551F1F80180813196D7
:100690009801285F3F4F813134F08FEF23C0919153
:1006A000890F8131D4F7E217F307C9F798E0C92E13
:1006B0009FE1D92EE12CF12CF80141918F01C70166
:1006C000B6010E94C007F0E2CF0ED11CE11CF11C64
:1006D00088E0C81680E2D806E104F10469F72097A3
:1006E00051F480E0DF91CF911F910F91FF90EF9037
:1006F000DF90CF900895888181317CF6FE0131969C
:100700009E01285F3F4F2E173F07C1F488E0C82E97
:100710008EE1D82EE12CF12C4991C701B6010E943F
:10072000C007E0E2CE0ED11CE11CF11CF8E0CF16B0
:10073000FFE1DF06E104F10479F7D3CF9191890F4E
:1007400081310CF3AACFCF92DF92EF92FF920F93F9
:100750001F93CF93DF93092F10E0482F407F60E075
:1007600075E180E090E00E94C00788E0C82E82E03A
:10077000D82EE12CF12CC0E0D0E0C8010C2E02C034
:10078000959587950A94E2F780FF05C04FE1C70170
:10079000B6010E94C007219680E2C80ED11CE11C60
:1007A000F11C28E0C21623E0D206E104F10429F787
:1007B000DF91CF911F910F91FF90EF90DF90CF903D
:1007C0000895CF9360E075E180E090E00E945707C4
:1007D000C82F60E077E180E090E00E94570790E04A
:1007E000982F8827C07F8C0F911DCF910895CF93AC
:1007F000482FC92F60E076E180E090E00E94C007BA
:100800004C2F60E078E180E090E0CF910C94C0073D
:10081000CF9360E076E180E090E00E945707C82F18
:1008200060E078E180E090E00E94570790E0982F28
:1008300088278C0F911DCF91089560E07EE280E0C3
:1008400090E00E9457078170089560E07EE280E0AA
:1008500090E00E945707982F987381E0903309F039
:1008600080E0089560E07EE280E090E00E9457071B
:10087000482F4F7760E07EE280E090E00E94C00762
:1008800060E07EE280E090E00E945707482F4068D9
:1008900060E07EE280E090E00C94C007FC0141E063
:1008A0008081813009F040E04295440F440F407C44
:1008B0008181813049F4486360E07EE280E090E02D
:1008C0000E94C0070C94320482819381913031F4EC
:1008D000813011F44861F0CF4860EECF813061F78C
:1008E0004061EACFCF93DF93EC0160E07EE280E0ED
:1008F00090E00E94570786FB992790F9282F2873CC
:100900009883203241F481E089838A8381E08B835C
:10091000DF91CF910895283329F481E089831A82E9
:1009200080E0F5CF1982982F90738872903129F466
:1009300091E09A83883051F3F3CF1A82FBCFCF93A3
:10094000DF93EC0160E07EE280E090E00E945707D8
:1009500082FB992790F99B83869581708A83DF912A
:10096000CF910895CF93C82F60E07EE280E090E0C1
:100970000E945707482F8FEF46FF1AC0477CC130AF
:10098000C9F4406360E07EE280E090E00E94C0072E
:100990000E94320460E07EE280E090E00E9457070F
:1009A000982FC13049F4907381E0911180E08195D6
:1009B000CF9108954863E6CF9873F6CF1F93CF93F6
:1009C000DF93FC01EB01409708F074C0E258F54E4C
:1009D0000C945B1A0E94C00280E06DC0685F7F4F7C
:1009E000209711F460E070E0CE01DF91CF911F916C
:1009F0000C943603888199810E94A303EDCF0E9455
:100A0000E10399838883E8CF888199810E94F70365
:100A1000E3CF0E940804F5CF498160E073E180E0F4
:100A200090E00E94C007488160E074E180E090E0BF
:100A30000E94C007D1CF60E073E180E090E00E94A7
:100A40005707182F60E074E180E090E00E9457079C
:100A5000212F30E0322F2227280F311D39832883A0
:100A6000BBCF809114018883809115018983809187
:100A700016018A83809117018B83809118018C83E2
:100A8000809119018D831E82A7CF0E943204A4CFCA
:100A9000CB010E944E04A0CFCB010E9472049CCFD8
:100AA0008881DF91CF911F910C94B2040E9425049C
:100AB0008F3F41F48FEFDF91CF911F9108950E94F6
:100AC0001D04F6CF888388CFCF93DF93EC0126E017
:100AD00030E0AC0160E079E080E090E00E94AD0899
:100AE000AE01425F5F4F24E030E060E071E080E003
:100AF00090E00E94AD08AE01465F5F4F24E030E019
:100B000060E075E080E090E00E94AD08AE014A5FD1
:100B10005F4F24E030E060E07FE080E090E00E9402
:100B2000AD08EBE4F2E08A8980838B8981838C892C
:100B300082838D8983838E899F8990934A028093D3
:100B40004902DF91CF910895CF93DF93EC0126E026
:100B500030E0AC0160E079E080E090E00E942B089A
:100B6000AE01425F5F4F24E030E060E071E080E082
:100B700090E00E942B08AE01465F5F4F24E030E01A
:100B800060E075E080E090E00E942B08AE014A5FD3
:100B90005F4F24E030E060E07FE080E090E00E9482
:100BA0002B08EBE4F2E080818A8B81818B8B828140
:100BB0008C8B83818D8B8091490290914A029F8B0F
:100BC0008E8BDF91CF910895CF93DF93EC01857CDD
:100BD000892B81F460E070E0CB010E9457074C2F15
:100BE000482B60E070E0CB010E94C00780E0DF91FD
:100BF000CF9108958FEFFBCF60E070E0CB010E94B2
:100C0000570790E00895CF93DF93EC01488160E0AF
:100C10007BE180E090E00E94C0074A8160E079E1DA
:100C200080E090E00E94C007498160E07AE180E0C6
:100C300090E0DF91CF910C94C0070F931F93CF9357
:100C40008C0160E07BE180E090E00E945707F801B2
:100C5000808360E079E180E090E00E945707C82F30
:100C600060E07AE180E090E00E9457072C2F30E0AE
:100C7000322F2227280F311DF80132832183CF9193
:100C80001F910F910895CF93DF939C01EB01833067
:100C9000910509F160F48130910599F00297A9F06E
:100CA000CB010E94640580E0DF91CF910895049705
:100CB000B9F08FEF25303105B9F7CB010E941D0641
:100CC000F2CFCB010E94A405EECF88819981DF91FC
:100CD000CF910C94E4050E94FC0599838883E3CFAF
:100CE000CB010E940306DFCF0895089508958091F7
:100CF0007C0190917D01FC012385348521303105F3
:100D000011F00E94C30040E157E260E070E080E033
:100D10000E945418ECCF60E070E080E090E00E9408
:100D200036038CE291E00E9464056CE271E080E0A1
:100D300090E00C9443060F931F93CF93DF938C01A5
:100D4000E4E4F1E0C0E0D0E085819681892B09F4EC
:100D5000EF01379681E0EC37F807B1F7209741F4BF
:100D6000C0E0D0E0CE01DF91CF911F910F910895A7
:100D700020E0A80162E288810E94320C813081F774
:100D80000A831B831C8282E28983ECCFCF93DF939B
:100D9000EC0188810E94A00B1E821D82DF91CF9101
:100DA00008956F927F928F929F92AF92BF92CF924F
:100DB000DF92EF92FF920F931F93CF93DF93D82E82
:100DC000C92EEB017A01722E632E40E050E0BA0189
:100DD0004E01A12CB12C84169506A606B70689F4FF
:100DE00081E090E0DF91CF911F910F91FF90EF9004
:100DF000DF90CF90BF90AF909F908F907F906F903B
:100E00000895F70102811381272D362DAE016D2D36
:100E10007C2D80810E94AD11462F572FBC011416E6
:100E2000150616061706BCF280E090E0DBCF0F93A4
:100E30001F93CF93DF9300D000D0CDB7DEB7809162
:100E4000380290913902A0913A02B0913B02898315
:100E50009A83AB83BC8380E194EA0E949B068C0159
:100E6000009751F09E012F5F3F4FAC016CE070E0A6
:100E70008BE292E00E94D106C8010E94C6060F9044
:100E80000F900F900F90DF91CF911F910F910895C8
:100E90000F931F93FA018A010E5F1F4FAB01BC0134
:100EA00080810E941A13CB011F910F9108958F9298
:100EB0009F92AF92BF92CF92DF92EF92FF92CF9329
:100EC000DF9300D00F92CDB7DEB76B017C01E091CC
:100ED0001C01F0911D010995E0912001F091210183
:100EE0000995C701AA27BB278D2C9E2CAF2CBB24AC
:100EF0002091280130912901232B31F0E0912A0122
:100F0000F0912B01309781F5E0912601F0912701B6
:100F10000995E0912601F0912701882D0995E0912E
:100F20002601F09127018C2D0995E0912401F09183
:100F300025010995F82EE0912201F09123010995F0
:100F4000E0911E01F0911F0109958F2D0F900F90D8
:100F50000F90DF91CF91FF90EF90DF90CF90BF90F7
:100F6000AF909F908F9008958983DC24CD24DC245A
:100F7000DB82CA8263E070E0CE0101960995D5CF8D
:100F80008F929F92AF92BF92CF92DF92EF92FF9299
:100F90001F93CF93DF9300D000D0CDB7DEB76B01A6
:100FA0007C01142FE0911C01F0911D010995E09145
:100FB0002001F0912101099546015701689482F8BA
:100FC000E0912A01F0912B01C701AA27BB27CD2C64
:100FD000DE2CEF2CFF24309789F5E0912601F0916B
:100FE00027010995E0912601F09127018C2D0995A3
:100FF000E0912601F0912701882D0995E0912601C5
:10100000F0912701812F0995E0912201F0912301B0
:101010000995E0911E01F0911F0109950F900F9025
:101020000F900F90DF91CF911F91FF90EF90DF9085
:10103000CF90BF90AF909F908F9008958983982410
:10104000892498249B828A821C8364E070E0CE010C
:1010500001960995D9CF4F925F926F927F92AF928E
:10106000BF92CF92DF92EF92FF920F931F93CF9395
:10107000DF9300D00F92CDB7DEB76B017C015A0130
:101080008901E0911C01F0911D010995E091200179
:10109000F09121010995C701AA27BB274D2C5E2C91
:1010A0006F2C77242091280130912901232B31F0D6
:1010B000E0912A01F0912B013097E1F5E0912601B2
:1010C000F09127010995E0912601F0912701842DE7
:1010D0000995E0912601F09127018C2D0995750164
:1010E0000A0D1B1DE016F106E1F4E0912201F091DA
:1010F00023010995E0911E01F0911F0109950F90C0
:101100000F900F90DF91CF911F910F91FF90EF9073
:10111000DF90CF90BF90AF907F906F905F904F9097
:101120000895E0912401F09125010995F70181933B
:101130007F01D8CF8983DC24CD24DC24DB82CA82E2
:1011400063E070E0CE0101960995E0912801F091ED
:101150002901B801C5010995C8CF6F927F928F927E
:101160009F92AF92BF92CF92DF92EF92FF920F9336
:101170001F93CF93DF9300D00F92CDB7DEB76B01F3
:101180007C013A018901E0911C01F0911D01099552
:10119000E0912001F09121010995460157016894E1
:1011A00082F8E0912A01F0912B01C701AA27BB2701
:1011B000CD2CDE2CEF2CFF243097E1F5E0912601B9
:1011C000F09127010995E0912601F09127018C2DDE
:1011D0000995E0912601F0912701882D0995730169
:1011E000060D171DE016F106E1F4E0912201F091E1
:1011F00023010995E0911E01F0911F0109950F90BF
:101200000F900F90DF91CF911F910F91FF90EF9072
:10121000DF90CF90BF90AF909F908F907F906F9016
:101220000895E0912601F0912701D7018D917D016C
:101230000995D8CF89839824892498249B828A820F
:1012400063E070E0CE0101960995E0912A01F091EA
:101250002B01B801C3010995C8CF0F931F93CF93FA
:10126000DF93CDB7DEB72A970FB6F894DEBF0FBE77
:10127000CDBF24E0829FC0011124019623E0880F96
:10128000991F2A95E1F79C01305EA901330F660B87
:10129000770B49835A836B837C839F5D9C01990FF5
:1012A000440B550B2D833E834F8358871A8619862E
:1012B00069817A818B819C810E945707082F10E0F9
:1012C000102F00276D817E818F8198850E9457079E
:1012D000080F111D01151105C1F069817A818B81FB
:1012E0009C810E945707482F50E0742F66277A8709
:1012F00069876D817E818F8198850E945707298536
:101300003A85280F311D3A87298749855A85401724
:10131000510771F6CA012A960FB6F894DEBF0FBEC8
:10132000CDBFDF91CF911F910F9108950F931F9320
:10133000CF93DF93CDB7DEB72A970FB6F894DEBF11
:101340000FBECDBF24E0829FC0011124019623E08F
:10135000880F991F2A95E1F79C013A5DA901330F87
:10136000660B770B49835A836B837C83995D9C0161
:10137000990F440B550B2D833E834F8358871A8654
:10138000198669817A818B819C810E945707082F79
:1013900010E0102F00276D817E818F8198850E943B
:1013A0005707080F111D01151105C1F069817A81D8
:1013B0008B819C810E945707482F50E0742F66272D
:1013C0007A8769876D817E818F8198850E94570712
:1013D00029853A85280F311D3A87298749855A85FD
:1013E0004017510771F6CA012A960FB6F894DEBF6E
:1013F0000FBECDBFDF91CF911F910F910895AF9296
:10140000BF92CF92DF92EF92FF920F931F93CF93F1
:10141000DF93CDB7DEB72E970FB6F894DEBF0FBEC1
:10142000CDBF6B014D875E870D851E85012B09F4AD
:1014300078C024E0829F8001112458013FEFA31A55
:10144000B30A83E0AA0CBB1C8A95E1F7C5019C5D39
:101450009C01990F440B550B29833A834B835C8382
:10146000CA01B9010E945707E82E3BEDB31AC50126
:10147000BB0CAA0BBB0B8D839E83AF83B887BC01CB
:10148000CD010E945707F12CFE2CEE24E80EF11C32
:10149000C801029623E0880F991F2A95E1F7092ECB
:1014A000000CAA0BBB0BA70160E070E0762F652F44
:1014B000542F44278C019D01040F151F261F371F31
:1014C00009871A872B873C872D853E85A60169856C
:1014D0007A858B859C850E94AD080D851E850E0D35
:1014E0001F1D1A8709874A8569817A818B819C81B2
:1014F0000E94C00749856D817E818F8198852E96D7
:101500000FB6F894DEBF0FBECDBFDF91CF911F9114
:101510000F91FF90EF90DF90CF90BF90AF900C9421
:10152000C0072E960FB6F894DEBF0FBECDBFDF9179
:10153000CF911F910F91FF90EF90DF90CF90BF90D0
:10154000AF900895AF92BF92CF92DF92EF92FF9249
:101550000F931F93CF93DF93CDB7DEB72E970FB6C0
:10156000F894DEBF0FBECDBF6B014D875E870D8542
:101570001E85012B09F478C024E0829F800111248C
:1015800058013FEFA31AB30A83E0AA0CBB1C8A954B
:10159000E1F7C501985D9C01990F440B550B298318
:1015A0003A834B835C83CA01B9010E945707E82E36
:1015B00037EDB31AC501BB0CAA0BBB0B8D839E8301
:1015C000AF83B887BC01CD010E945707F12CFE2CD8
:1015D000EE24E80EF11CC801039623E0880F991F42
:1015E0002A95E1F7092E000CAA0BBB0BA70160E0BE
:1015F00070E0762F652F542F44278C019D01040F36
:10160000151F261F371F09871A872B873C872D85B3
:101610003E85A60169857A858B859C850E942B086D
:101620000D851E850E0D1F1D1A8709874A85698144
:101630007A818B819C810E94C00749856D817E8162
:101640008F8198852E960FB6F894DEBF0FBECDBF62
:10165000DF91CF911F910F91FF90EF90DF90CF908E
:10166000BF90AF900C94C0072E960FB6F894DEBFD3
:101670000FBECDBFDF91CF911F910F91FF90EF90E3
:10168000DF90CF90BF90AF900895EF92FF920F93AD
:101690001F93CF93DF93CDB7DEB72B970FB6F89498
:1016A000DEBF0FBECDBF7B0124E0829F80011124ED
:1016B0000F5F1F4F83E0000F111F8A95E1F7C801EC
:1016C000985D9C01990F440B550B29833A834B83FA
:1016D0005C83CA01B9010E9457078987175DC80159
:1016E000110FAA0BBB0B8D839E83AF83B887BC0100
:1016F000CD010E945707B985AB2FB0E03A2F2227C2
:10170000E80EF11C2E0D3F1D3B872A874B85698112
:101710007A818B819C810E94C0074A856D817E8180
:101720008F8198852B960FB6F894DEBF0FBECDBF84
:10173000DF91CF911F910F91FF90EF900C94C00714
:10174000EF92FF921F93CF93DF9300D000D000D091
:10175000CDB7DEB7182F8FEF193008F077C0E12E24
:10176000F12C44E0149F900111242F5F3F4F93E030
:10177000220F331F9A95E1F73E832D83C90193957C
:101780009C01990F440B550B29833A834B835C834F
:1017900040E169817A818B819C810E94C0076981C7
:1017A0007A818B819C810E9457078111F8CF8D81AE
:1017B0009E819E5F9C01990F440B550B29833A83B0
:1017C0004B835C834FE169817A818B819C810E948C
:1017D000C00781E090E002C0880F991F1A95E2F7D8
:1017E0008095909520918D0430918E042823392383
:1017F00030938E0420938D0420918B0430918C04BF
:101800008223932390938C0480938B04F701EE0F33
:10181000FF1FE558FB4F11821082F701ED58FB4F77
:1018200010824D815E815D5FCA01092E000CAA0BFA
:10183000BB0B89839A83AB83BC8369817A818B815B
:101840009C810E9457078111F8CF81E00F900F9083
:101850000F900F900F900F90DF91CF911F91FF90FD
:10186000EF9008957F928F929F92AF92BF92CF9206
:10187000DF92EF92FF920F931F93CF93DF93CDB739
:10188000DEB728970FB6F894DEBF0FBECDBF182F76
:10189000762E6A01022F8FEF193000F521E06217D2
:1018A00049F08EEF860F833008F003C102FFD3C0EA
:1018B0008AEF14C024E030E0AE014F5F5F4F60E07C
:1018C0007FE080E090E00E942B0889819A81AB81C3
:1018D000BC81892B8A2B8B2BA9F48DEF28960FB610
:1018E000F894DEBF0FBECDBFDF91CF911F910F9156
:1018F000FF90EF90DF90CF90BF90AF909F908F9030
:101900007F90089502FDD4CF0111B3C0812F0E94B2
:10191000A00BA12EB12C34E0139F700111244FEFC6
:10192000E41AF40A23E0EE0CFF1C2A95E1F7402F9D
:10193000407F4729C7010F2C000CAA0BBB0BBC0131
:10194000CD010E94C007C114D10409F497C0C7019A
:101950009C5F9C01990F440B550B2D833E834F8355
:1019600058874D2D6D817E818F8198850E94C0079B
:10197000C7019B5F9C01990F440B550B2D833E8340
:101980004F8358874C2D6D817E818F8198850E9471
:10199000C007C70193959C01990F440B550B2D83EC
:1019A0003E834F83588741E06D817E818F8198858A
:1019B0000E94C0076D817E818F8198850E945707A4
:1019C0008111F8CF81E090E0012E02C0880F991FAD
:1019D0000A94E2F78095909520918D0430918E04C1
:1019E0002823392300FB882480F8912C012E02C083
:1019F000880C991C0A94E2F7822A932A90928E040A
:101A000080928D0420918B0430918C048223932347
:101A100090938C0480938B04F501EE0FFF1FE55823
:101A2000FB4F11821082F501ED58FB4F10823DEF04
:101A3000F31AC701FF0CAA0BBB0B8D839E83AF83E8
:101A4000B8876D817E818F8198850E945707882392
:101A5000C1F3812F43CF002309F458CF92E06913DB
:101A600055CF802F8073882309F450CF07FD4ECFC8
:101A70001FCF802F8172811149CF1ACFC0907E0174
:101A8000D0907F01C6010196AFEECA16AFEFDA061D
:101A900029F090937F0180937E0159CF80E090ECF4
:101AA00090937F0180937E019FEEC92EDD24DA940E
:101AB0004ECF8BEF13CF1F93CF93DF93CDB7DEB70E
:101AC00028970FB6F894DEBF0FBECDBF182F8FEF4B
:101AD000193008F056C044E0149F900111242F5F84
:101AE0003F4F83E0220F331F8A95E1F73E832D831A
:101AF000C901092E000CAA0BBB0B89839A83AB8307
:101B0000BC83BC01CD010E9457078F70813009F062
:101B100042C08D819E819D5F9C01990F440B550BA6
:101B200029833A834B835C83CA01B9010E9457071A
:101B3000833199F54D815E815395CA01092E000CC0
:101B4000AA0BBB0B8D839E83AF83B88742E0BC0199
:101B5000CD010E94C0076D817E818F8198850E9492
:101B600057078111F8CF69817A818B819C810E940E
:101B70005707843111F481E004C0812F0E94A00B2B
:101B80008CEF28960FB6F894DEBF0FBECDBFDF9165
:101B9000CF911F9108958BEFF4CF8DEFF2CFDF92AD
:101BA000EF92FF920F931F93CF93DF93CDB7DEB7E2
:101BB0002A970FB6F894DEBF0FBECDBFD82E8B018B
:101BC0007A0128E08FEF2D1508F4E7C084E0D89E55
:101BD000A00111244F5F5F4F23E0440F551F2A954A
:101BE000E1F75A8749879A01032E000C440B550BE5
:101BF00029833A834B835C83CA01B9010E9457074A
:101C00008F70813009F0E1C089859A859D5F9C01C4
:101C1000990F440B550B2D833E834F835887CA0180
:101C2000B9010E945707833109F0D1C0D8014D9105
:101C30005C91119754274527542760E070E0762F78
:101C4000652F542F442712968C911297480F511DDF
:101C5000611D711D762F652F542F442713968C918B
:101C600090E0A0E0B0E00197A109B109840F951FB1
:101C7000A61FB71F8E3F9F4FAF4FBF4F08F0A9C0A1
:101C800085EFE114F10409F488C089859A85945F91
:101C90009C01990F440B550B29833A834B835C833A
:101CA00024E030E0A80169817A818B819C810E94C7
:101CB000AD0889859A85905F9C01990F440B550B5F
:101CC00029833A834B835C834F2D69817A818B8191
:101CD0009C810E94C00789859A859F5E9C01990F0F
:101CE000440B550B29833A834B835C834E2D6981CA
:101CF0007A818B819C810E94C00789859A85939502
:101D00009C01990F440B550B29833A834B835C83C9
:101D100044E069817A818B819C810E94C00769813E
:101D20007A818B819C810E9457078111F8CF81E0D5
:101D300090E002C0880F991FDA94E2F720918D0499
:101D400030918E0482239323892B09F044C0498566
:101D50005A855E5FCA01092E000CAA0BBB0B898352
:101D60009A83AB83BC836D817E818F8198850E942D
:101D70005707873111F481E010C069817A818B8126
:101D80009C810E94570783FF16C048E069817A81D1
:101D90008B819C810E94C00783EF2A960FB6F8942E
:101DA000DEBF0FBECDBFDF91CF911F910F91FF908E
:101DB000EF90DF9008956D817E818F8198850E94DC
:101DC00057078111D0CF8CEFE8CF8BEFE6CF8DEFA7
:101DD000E4CF84EFE2CF80E0E0CF1F93CF93DF9397
:101DE000CDB7DEB728970FB6F894DEBF0FBECDBFD4
:101DF000182F8FEF193008F082C044E0149F900133
:101E000011242F5F3F4F83E0220F331F8A95E1F7A4
:101E10003E832D83C901092E000CAA0BBB0B8983BD
:101E20009A83AB83BC83BC01CD010E9457078F709E
:101E3000813009F06EC08D819E8193959C01990F30
:101E4000440B550B29833A834B835C8348E06981BB
:101E50007A818B819C810E94C00769817A818B8104
:101E60009C810E9457078111F8CF81E090E0012EFC
:101E700002C0880F991F0A94E2F7AC014095509573
:101E800020918B0430918C042423352330938C04CF
:101E900020938B0420918D0430918E048223932310
:101EA000892BC9F58D819E819D5F9C01990F440B03
:101EB000550B29833A834B835C834D815E815E5F42
:101EC000CA01092E000CAA0BBB0B8D839E83AF8326
:101ED000B88769817A818B819C810E945707811123
:101EE00002C081E00CC06D817E818F8198850E9447
:101EF000570783FFEECF812F0E94A00B83EF289618
:101F00000FB6F894DEBF0FBECDBFDF91CF911F910A
:101F100008958BEFF4CF80E0F2CF9F92AF92BF9203
:101F2000CF92DF92EF92FF920F931F93CF93DF93A5
:101F3000CDB7DEB728970FB6F894DEBF0FBECDBF82
:101F4000F82E962EE72E5A0128E06FEF7FEFCB0197
:101F50002F1508F4A0C034E0F39E800111240F5F18
:101F60001F4F83E0000F111F8A95E1F7C801012E72
:101F7000000CAA0BBB0B89839A83AB83BC83BC0187
:101F8000CD010E9457078F70813009F0E1C062EFE8
:101F90007FEF8FEF9FEFA114B10409F47CC0C8015B
:101FA0009D5F9C01990F440B550B29833A834B830A
:101FB0005C83CA01B9010E945707873119F08C313F
:101FC00009F05FC081E090E06C010F2C02C0CC0CE6
:101FD000DD1C0A94E2F780918B0490918C048C2193
:101FE0009D21892B21F1C8019E5F9C01990F440B13
:101FF000550B2D833E834F835887CA01B9010E9438
:10200000570784FF43C040E16D817E818F819885B1
:102010000E94C00780918B0490918C0496012095BA
:1020200030958223932390938C0480938B04C80172
:10203000915E9C01990F440B550B2D833E834F837A
:102040005887CA01B9010E9457071D82880F880F5F
:102050008E834D815E81A416B50610F4BE82AD82DA
:102060008F2D0E942D095C0169817A818B819C8171
:102070000E945707873149F18C3139F18F2D0E9429
:10208000A00B69EF7FEF8FEF9FEF05C083FD15C0B9
:1020900060E070E0CB0128960FB6F894DEBF0FBE6B
:1020A000CDBFDF91CF911F910F91FF90EF90DF9007
:1020B000CF90BF90AF909F9008958F2D0E94A00B5E
:1020C00063EF7FEF8FEF9FEFE6CF80918D049091CC
:1020D0008E048C219D21892BA1F18D819E81A816D2
:1020E000B906B0F24D815E81692D7E2D8F2D0E9443
:1020F000FF0913959801110F440B550B29833A835F
:102100004B835C8340E269817A818B819C810E9450
:10211000C00769817A818B819C810E945707811158
:10212000F8CF80918B0490918C048C299D299093F9
:102130008C0480938B044D815E81BA0180E090E035
:10214000AACFAD81BE81AA16BB0608F489CFCACF3B
:102150006BEF7FEF8FEF9FEF9ECF9F92AF92BF927B
:10216000CF92DF92EF92FF920F931F93CF93DF9363
:10217000CDB7DEB72A970FB6F894DEBF0FBECDBF3E
:10218000F82EE62E972E6A0128E06FEF7FEFCB0145
:102190002F1508F4ACC034E0F39E800111240F5FCA
:1021A0001F4F33E0000F111F3A95E1F7C801012ED0
:1021B000000CAA0BBB0B89839A83AB83BC83BC0145
:1021C000CD010E9457078F70813009F0C1C062EFC6
:1021D0007FEF8FEF9FEFC114D10409F488C0C801CD
:1021E000925E9C01990F440B550BCA01B9010E94E4
:1021F00057071986880F880F8A8749855A85C4161C
:10220000D50610F4DA86C98681E090E05C010F2CD7
:1022100002C0AA0CBB1C0A94E2F7C8019D5F9C0196
:10222000092E000C440B550B29833A834B835C83A6
:10223000945E9C01990F440B550B2D833E834F8375
:1022400058878F2D0E9496096C0169817A818B8154
:102250009C810E945707873109F468C08C3109F0CE
:102260003FC0C114D10451F149855A85C416D50621
:1022700010F4DA86C98649855A856E2D792D8F2D01
:102280000E94A20A1395C801110FAA0BBB0B8983E8
:102290009A83AB83BC8340E4BC01CD010E94C0079C
:1022A00069817A818B819C810E9457078111F8CFC7
:1022B000A985BA85BD0180E090E019C08F2D0E94EC
:1022C0002D096C016D817E818F8198850E94570751
:1022D00090E0982F8827990F990FC816D906C9F44E
:1022E0008F2D0E94A00B69EF7FEF8FEF9FEF2A9653
:1022F0000FB6F894DEBF0FBECDBFDF91CF911F9117
:102300000F91FF90EF90DF90CF90BF90AF909F9094
:10231000089580918D0490918E048A219B21892BB0
:1023200009F48FCF60E070E0CB01E1CF80918D04A4
:1023300090918E048A219B21892B29F0C114D1040C
:1023400009F092CFEFCFC114D10409F47ACF8CCF2A
:102350006BEF7FEF8FEF9FEFCACF9F92AF92BF924D
:10236000CF92DF92EF92FF920F931F93CF93DF9361
:10237000CDB7DEB72A970FB6F894DEBF0FBECDBF3C
:10238000F82E962EE72E6A0129873A87580128E011
:102390006FEF7FEFCB012F1508F422C134E0F39EDD
:1023A000800111240F5F1F4F83E0000F111F8A95DA
:1023B000E1F7C801012E000CAA0BBB0B89839A839D
:1023C000AB83BC83BC01CD010E9457078F70825044
:1023D000990B039708F024C162EF7FEF8FEF9FEF17
:1023E000C114D10409F4FCC0E985FA85808191818A
:1023F000A281B381892B8A2B8B2B09F48BC0A1146A
:10240000B10409F494C0C8019D5F9C01990F440B6D
:10241000550B29833A834B835C83CA01B9010E941F
:102420005707823409F090C0C801945F9C01990F4E
:10243000440B550B2D833E834F83588724E030E0B7
:1024400049855A856D817E818F8198850E94AD086E
:10245000C801905F9C01990F440B550B2D833E835F
:102460004F8358874B2D6D817E818F8198850E9487
:10247000C007C8019F5E9C01990F440B550B2D832B
:102480003E834F8358874A2D6D817E818F81988549
:102490000E94C007C801915E9C01990F440B550B27
:1024A0002D833E834F835887CA01B9010E94570785
:1024B0001D82880F880F8E834D815E81C416D506DC
:1024C00010F4DE82CD8281E090E05C010F2C02C02E
:1024D000AA0CBB1C0A94E2F78F2D0E942D096C01F7
:1024E00069817A818B819C810E945707882309F436
:1024F0009CC080918D0490918E048A219B21892B10
:1025000061F18D819E81C816D90668F560E070E0A2
:10251000CB0166C069817A818B819C810E945707BB
:1025200082FD6DCF64EF7FEF8FEF9FEF59C0698120
:102530007A818B819C810E94570782FD64CF65EF71
:102540007FEF8FEF9FEF4CC08F7E823209F46CCF0C
:1025500069EF7FEF8FEF9FEF43C0AD81BE81CA1659
:10256000DB0608F4B9CF4D815E81692D7E2D8F2D5C
:102570000E94FF09C80193959C01990F440B550BCC
:1025800029833A834B835C8340E269817A818B8122
:102590009C810E94C00769817A818B819C810E9405
:1025A00057078111F8CF1E5FC801110FAA0BBB0B93
:1025B00089839A83AB83BC8369817A818B819C8177
:1025C0000E94570784FF1EC040E169817A818B8198
:1025D0009C810E94C007AD81BE81BD0180E090E07A
:1025E0002A960FB6F894DEBF0FBECDBFDF91CF9114
:1025F0001F910F91FF90EF90DF90CF90BF90AF9021
:102600009F90089583FFD8CF48E069817A818B81BC
:102610009C810E94C00763EF7FEF8FEF9FEFE0CFB9
:102620006BEF7FEF8FEF9FEFDBCF6CEF7FEF8FEFE5
:102630009FEFD6CF2F923F924F925F926F927F92F1
:102640008F929F92AF92BF92CF92DF92EF92FF92C2
:102650000F931F93CF93DF93CDB7DEB763970FB67A
:10266000F894DEBF0FBECDBF582E462E7F875A018D
:1026700069010D871E8728E06FEF7FEFCB012515DD
:1026800008F42CC1852C912C34E0539E3001112488
:102690004FEF641A740A43E0660C771C4A95E1F721
:1026A000C301072C000CAA0BBB0B89879A87AB8749
:1026B000BC87BC01CD010E94570789878F7082506B
:1026C000990B039708F060C162EF7FEF8FEF9FEFE8
:1026D000A114B10409F402C17401EE0CFF1CF7014E
:1026E000E558FB4F80819181892B09F0BDC081E0C5
:1026F00090E01C01052C02C0220C331C0A94E2F766
:10270000C3019D5F9C01990F440B550B288B398B9E
:102710004A8B5B8B852D0E9496098C01688979898B
:102720008A899B890E945707882309F432C18091C6
:102730008D0490918E0482219321892B39F001150B
:10274000110539F460E070E0CB01C8C00115110536
:1027500009F38985877073949301770C440B550BAB
:1027600029873A874B875C87833009F4D0C084304F
:1027700009F47DC0823009F0FDC0F701E558FB4F38
:1027800080819181892BE9F548E050E0BE016F5FBF
:102790007F4F852D0E94A20A40E469857A858B854A
:1027A0009C850E94C00769857A858B859C850E94DF
:1027B00057078111F8CF8981D6018C938A811196B0
:1027C0008C9311978B8112968C9312978C81139610
:1027D0008C938D819E81982789279827ED85FE858A
:1027E00091838083F701E558FB4F8F819885982767
:1027F000892798279183808380E8F401ED58FB4F67
:102800008083F701E558FB4F00811181A016B106C6
:1028100008F48501A801642D7F85852D0E94A20AF8
:1028200040E469857A858B859C850E94C00769850F
:102830007A858B859C850E9457078111F8CFF70117
:10284000E558FB4F20813181201B310B31832083E0
:10285000F401ED58FB4F232B11F0808181608083C0
:10286000B80180E090E03AC000E010E072CFF701DC
:10287000E558FB4F80819181892B19F642E050E0A9
:10288000BE016F5F7F4F852D0E94A20A40E46985DB
:102890007A858B859C850E94C00769857A858B85A2
:1028A0009C850E9457078111F8CF898190E0982F6D
:1028B00088272A812250330B820F931FF701E55896
:1028C000FB4F918380838B3E954008F495CF852DF7
:1028D0000E94A00B67E17CEF8FEF9FEF63960FB62E
:1028E000F894DEBF0FBECDBFDF91CF911F910F9146
:1028F000FF90EF90DF90CF90BF90AF909F908F9020
:102900007F906F905F904F903F902F900895F701C8
:10291000E558FB4F80819181892B09F072CF46E009
:1029200050E0BE016F5F7F4F852D0E94A20A40E4F8
:1029300069857A858B859C850E94C00769857A8523
:102940008B859C850E9457078111F8CF8981D6011C
:102950008C938A8111968C9311978B8112968C930C
:1029600012978C8113968C93F701E558FB4F8D815C
:102970009E813DCFB801852D0E94450BF701E5589A
:10298000FB4F118300834CCF6BEF7FEF8FEF9FEFF7
:10299000A5CF6CEF7FEF8FEF9FEFA0CF0F931F932B
:1029A000CF93DF9300D000D000D0CDB7DEB7FB01CE
:1029B0004D835E83893008F0ADC06830710508F042
:1029C000ABC0E257F54E0C945B1AED81FE8190810D
:1029D0009130E9F421E030E002C0220F331F8A95E4
:1029E000E2F780918D0490918E04822B932B90932B
:1029F0008E0480938D0481E00F900F900F900F90C4
:102A00000F900F90DF91CF911F910F910895911129
:102A100083C021E030E0890102C0000F111F8A95B8
:102A2000E2F7C8018095909520918D0430918E0435
:102A300082239323DCCF20918D0430918E04A90151
:102A400002C0569547958A95E2F7CA018170ED81DB
:102A5000FE818083D0CFF0E28F9FC0011124885F78
:102A6000904E8C01990F220B330B09831A832B8311
:102A70003C83C901B8010E945707880F880FED8178
:102A8000FE8110828183B7CFF0E28F9FC0011124B5
:102A9000885F914EE6CFED81FE8140814032E0F5C6
:102AA000F0E28F9FC0011124885F9D4F8C01990F28
:102AB000220B330B09831A832B833C83C901B80192
:102AC0000E94C00798CF10E2819FC0011124885F47
:102AD0009D4F9C01990F440B550B29833A834B83DF
:102AE0005C83CA01B9010E9457078F71B0CFED8195
:102AF000FE814081403280F4F0E28F9FC0011124BA
:102B0000885F934DD3CF10E2819FC0011124885F6D
:102B1000934DDFCF8FEF70CF86EF6ECFCF92DF92E6
:102B2000EF92FF920F931F93CF93DF93CDB7DEB752
:102B30002A970FB6F894DEBF0FBECDBFFB018A0106
:102B4000893008F0F3C03197E730F10508F0F0C0A4
:102B5000EA56F54E90E025E0880F991F2A95E1F797
:102B60000C945B1A885F994E6C01990FEE08FF0870
:102B7000C982DA82EB82FC82D8014C91C701B6018E
:102B80000E94C00737C0885F9A4EEECFFC0138968E
:102B9000FE83ED83DA0111964C91885F9D4E6C01A6
:102BA000990FEE08FF08C701B6010E94C0072D81EA
:102BB0003E813D5EC901092E000CAA0BBB0B898327
:102BC0009A83AB83BC83D8014C9169817A818B81D4
:102BD0009C81D6CF885F934F6C01990FEE08FF0858
:102BE000C982DA82EB82FC8224E030E0C701B601C0
:102BF0000E94AD0881E02BC09C01285F3F4F3E83BF
:102C00002D83DA0111964C91885F9F4E6C01990FCC
:102C1000EE08FF08C701B6010E94C0072D813E8162
:102C20003F5EC8CFFC013896FA87E9876F010D2C0B
:102C3000000CEE08FF08C982DA82EB82FC82C70131
:102C4000B6010E9457078F70813081F08BEF2A9672
:102C50000FB6F894DEBF0FBECDBFDF91CF911F91AD
:102C60000F91FF90EF90DF90CF90089589859A851E
:102C7000915D9C01990F440B550B29833A834B833B
:102C80005C83CA01B9010E945707811153C089852D
:102C90009A8593956C01990FEE08FF08CD82DE822C
:102CA000EF82F88642E2C701B6010E94C00729857B
:102CB0003A853E5FC901092E000CAA0BBB0B898324
:102CC0009A83AB83BC836D817E818F8198850E94BE
:102CD0005707882309F48ECF69817A818B819C8183
:102CE0000E94570783FFEFCF48E069817A818B818B
:102CF0009C810E94C00783EFAACFDC011896BE8397
:102D0000AD836D010D2C000CEE08FF08C982DA823C
:102D1000EB82FC82C701B6010E9457078F70813099
:102D200009F094CF2D813E81315D44CF8FEF8FCF5D
:102D300086EF8DCF8EEF8BCFEF92FF920F931F9385
:102D4000CF93DF9300D000D000D0CDB7DEB7E82E10
:102D5000FB014D835E8328E08FEF2E1508F4BFC082
:102D60006D30710508F031C1E356F54E0C945B1AD5
:102D700034E0E39E700111244FEFE41AF40AF3E00B
:102D8000EE0CFF1CFA95E1F7C701FF0CAA0BBB0B79
:102D900089839A83AB83BC83BC01CD010E94570712
:102DA000807FAD81BE818C9381E099C0B0E2EB9EC3
:102DB000C0011124885F994E9C01990F440B550B5B
:102DC00029833A834B835C83CA01B9010E94570768
:102DD000E8CFB0E2EB9EC0011124885F9A4EECCFA1
:102DE000B4E0EB9E70011124EFEFEE1AFE0AE3E06F
:102DF000EE0CFF1CEA95E1F7C7019E5E9C01990F5E
:102E0000440B550BCA01B9010E945707182F3DEE1C
:102E1000F31AC701FF0CAA0BBB0B89839A83AB8300
:102E2000BC83BC01CD010E945707212F30E0322F17
:102E30002227280F311DAD81BE812D933C93B4CF45
:102E4000B0E2EB9EC0011124885F934F9C01990F63
:102E5000440B550B29833A834B835C8324E030E099
:102E60004D815E8169817A818B819C810E942B08D2
:102E70009BCF34E0E39E700111244FEFE41AF40A73
:102E800073E0EE0CFF1C7A95E1F7C701905F9C019F
:102E9000990F440B550BCA01B9010E945707182F0F
:102EA0003FEEF31AB6CFB4E0EB9E800111240F5F22
:102EB0001F4F53E0000F111F5A95E1F79801012EA3
:102EC000000C440B550B29833A834B835C83CA0166
:102ED000B9010E9457078F70813071F08BEF0F900E
:102EE0000F900F900F900F900F90DF91CF911F9147
:102EF0000F91FF90EF900895115DC801110FAA0B7B
:102F0000BB0B89839A83AB83BC83BC01CD010E9438
:102F1000570790E0AD81BE818D939C9345CF8E2D58
:102F20000E942D09ED81FE81918380833DCFB0E227
:102F3000EB9EC0011124885F9C4F3ECF0E2D10E008
:102F4000B4E0EB9E900111242F5F3F4F43E0220F2E
:102F5000331F4A95E1F7C901330FAA0BBB0B8983D5
:102F60009A83AB83BC83BC01CD010E94570780FFCD
:102F700004C08E2D0E949609CDCFF801EE0FFF1FE1
:102F8000E558FB4F80819181CDCF0E2D10E0F4E00C
:102F9000EF9EC0011124019623E0880F991F2A9506
:102FA000E1F79C01990F440B550B29833A834B831E
:102FB0005C83CA01B9010E945707813009F48ECFA2
:102FC000F801ED58FB4F8081ECCE8EEF88CFCF9289
:102FD000DF92EF92FF926A017B01E091CB01F091C9
:102FE000CC01EF3FFE0781F0FF27EE0FFF1FEE0F32
:102FF000FF1FED56FB4F4081518162817381C416E2
:10300000D506E606F70680F4282F30E094E0899F85
:10301000F0011124ED56FB4FC082D182E282F3828F
:103020003093CC012093CB01FF90EF90DF90CF90B5
:103030000895CF92DF92EF92FF928091CB01909111
:10304000CC01AAE28F3F980781F4FF90EF90DF90C8
:10305000CF900895A29FF001A39FF00D1124E1509D
:10306000FE4F17A216A28FEF9FEFC0908F04D09053
:103070009004E0909104F09092049C013327F901B0
:10308000EE0FFF1FEE0FFF1FED56FB4F40815181EA
:1030900062817381C416D506E606F706D8F69093CA
:1030A000CC018093CB01D1CF0F931F9300918F045C
:1030B000109190042091910430919204400F511F7F
:1030C000621F731F0E94E717E091D301F091D401B2
:1030D00082E090E097A386A30E9494191F910F911C
:1030E0000895EC01E8A5F9A5099581E090E09FA37A
:1030F0008EA3FFCFDC01FB01892B21F095967C93F9
:103100006E93949740A751A7F58FE48F17A216A24C
:103110000895EF92FF920F931F93CF93DF93FC01DB
:10312000DA01C90126173707D0F114964D915C9149
:10313000159761E778E1172F9A01215031090D9019
:10314000BC91A02DA20FB31F20E030E02817390753
:1031500019F481E090E025C03097D9F32F5F3F4FFD
:10316000B183A083ED012197D383C2836C93C28185
:10317000D3817E0101E0E01AF108F382E282188334
:10318000C281D3817E0101E0E01AF108F382E2827C
:10319000188204A0F5A1E02DA40FB51FD7CF80E0C1
:1031A00090E0DF91CF911F910F91FF90EF900895E4
:1031B00021E030E0FC0137A326A30895A091D301BC
:1031C000B091D4019496ED91FC919597EA17FB0785
:1031D00019F480E090E0089586A197A1892B39F435
:1031E000F093D401E093D30181E090E0089504A02E
:1031F000F5A1E02DEBCFFC0140815181228133818B
:103200002F5F3F4F42175307B0F086819781DC0153
:103210001496AA0FBB1FAE0FBF1F6C9311967C9321
:10322000338322830196BA010E94471A97838683CB
:1032300081E090E0089580E090E00895DC0114962C
:10324000ED91FC91159712962D913C9113972115B4
:103250003105A9F0AF014F5F5F4F15965C934E9318
:1032600014973496EE0FFF1FEA0FFB1F80819181A8
:103270002150310913963C932E931297089580E0C4
:1032800090E0089545E050E060E070E080E00E944A
:1032900054184AE050E060E070E080E00E9454186A
:1032A00045E050E060E070E080E00C945418FF933B
:1032B000EF93DF93CF93BF93BFB71F921124C091B9
:1032C0008F04D0919004E0919104F09192042196A2
:1032D000E11DF11DC0938F04D0939004E0939104FD
:1032E000F0939204C0912633C33059F0C395C09334
:1032F0002633BFBF1F90BF91CF91DF91EF91FF9118
:10330000189510922633BFBF1F90BF91CF91DF91C8
:10331000EF91FF91F0932733F4E9FF93F9E1FF93E5
:10332000F091273318950000FF93EF93DF93CF932D
:10333000DFB7E091B804E03031F0DFBFCF91DF912B
:10334000EF91FF910895DF93E9EAF9E1EF93FF939D
:103350000895F894EF6FE093B8047894C091D30186
:10336000D091D4010C821D8211240F902E823F82B5
:10337000488659866A867B868C869D86AE86BF8601
:10338000C88AD98AEA8AFB8A0C8B1D8B2E8B3F8BCD
:10339000488F598F6A8F7B8F8C8F9D8FAE8FBF8F99
:1033A0008F9188A38F9189A38F918AA38F918BA3EB
:1033B0000F920DB60A820EB60B820E9419180E9457
:1033C000DE18892BD1F3C091D301D091D4010A80AA
:1033D0000DBE0B800EBE0F900FBE0C801D802E8088
:1033E0003F80488459846A847B848C849D84AE8425
:1033F000BF84C888D988EA88FB880C891D892E89F2
:103400003F89488D598D6A8D7B8D8C8D9D8DAE8DBC
:10341000BF8DEAA1FBA1EF93FF93E8A1F9A1EF0112
:10342000FF91F894E0E0E093B804EF917894089568
:103430004091290250912A026FEF71E08091D301EF
:103440009091D4010E947A188FEF91E0909324021A
:10345000809323022091CF013091D0014DEC51E0B7
:1034600061E070E00E948918892B21F00E947C00A5
:103470000E949419FFCF991B79E004C0991F9617F9
:1034800008F0961B881F7A95C9F780950895AA1BA6
:10349000BB1B51E107C0AA1FBB1FA617B70710F03F
:1034A000A61BB70B881F991F5A95A9F78095909571
:1034B000BC01CD010895EE0FFF1F0590F491E02DA2
:1034C00009946817790768F4FB01DC01E40FF51F24
:1034D000A40FB51F02C002900E9241505040D8F781
:1034E00008950C94731AFB01DC0102C001900D9247
:1034F00041505040D8F70895F894FFCFEA04EE0405
:10350000FF04FA04040509050C051B0531054505F2
:1035100048054C05EC04500556055F05E5141B15E0
:103520002B1544154B15631577158315B215C31567
:10353000C615EA15FC1512167D16B816D616E9162C
:10354000F01620173917E51753178F17B917971764
:043550009E17C517E6
:103554000500000000000000000000000000000062
:1035640000000102573535303000000008024802DF
:103574004902470209020C0200000000A8610AAED9
:10358400AA2CC0A80048FFFFFF00000000000000B4
:103594000000010000000000000100010000000024
:1035A4000000020000000000000300000000000012
:1035B40004000000000000050000000000000600F8
:1035C400000000000007000000000000800100C0AF
:1035D400008813000000000000010000001707002D
:1035E40000000000000000000000000000000000D7
:1035F40000000000000000000000000000000000C7
:1036040000000000000000000000000000000000B6
:103614000000000000000000000000FFFF9704010C
:10362400002000D5010000000000000000000000A0
:103634000000000000000000000000000000000086
:103644000000000000000000000000010000000075
:103654000000000000000000000000000000000066
:103664000000000000000000000000000000000056
:10367400000000FF0100007706421948656C6C6F7A
:0E36840020776F726C642100C0A8022A00003B
:00000001FF
