:100000000C9434000C9451000C9451000C94510049
:100010000C9451000C9451000C9451000C9451001C
:100020000C9451000C9451000C9451000C947D03DD
:100030000C9451000C9451000C9451000C945100FC
:100040000C9451000C9451000C9451000C945100EC
:100050000C9451000C9451000C9451000C945100DC
:100060000C9451000C94510011241FBECFEFD8E026
:10007000DEBFCDBF11E0A0E0B1E0EAE3FFE002C0E7
:1000800005900D92AE30B107D9F721E0AEE0B1E0B6
:1000900001C01D92AA31B207E1F70E9451030C94EE
:1000A0009B070C940000CF93DF9300D000D000D0CA
:1000B000CDB7DEB79A8389837C836B835E834D8360
:1000C00089819A81FC011182108289819A81FC01C7
:1000D0001382128289819A81FC01158214822D81FA
:1000E0003E818B819C81B9010E9450069C018981CF
:1000F0009A81FC013183208389819A81FC0180816E
:100100009181892B79F089819A812B813C81FC0135
:100110003383228389819A812D813E81FC0135833D
:10012000248301C0000026960FB6F894DEBF0FBEF0
:10013000CDBFDF91CF910895CF93DF9300D0CDB79E
:10014000DEB79A83898389819A81FC0180819181BC
:100150000E94020700000F900F90DF91CF91089549
:10016000CF93DF93CDB7DEB7C154D1090FB6F89462
:10017000DEBF0FBECDBF8FAB79AF68AF5BAF4AAF0D
:100180002DB73EB722963FAF2EAF22978DB79EB7C1
:100190009FAF8EAFEEADFFADFDAFECAF8FA9853059
:1001A00018F080E090E0D6C01B821A822FA9822F1F
:1001B00090E001979D838C83222F30E049E2429F9B
:1001C000C001439F900D11242DB73EB7281B390B5A
:1001D0000FB6F8943EBF0FBE2DBF8DB79EB70196E8
:1001E0009F838E83CE010896909313018093120112
:1001F0008FA9882F90E049E2489F9001499F300DD8
:1002000011248E819F81A90160E070E00E94940713
:10021000CE01089649E250E060E070E00E94940749
:100220008FEF98E09987888781E08EA7CE010896A6
:100230009093110180931001198253C08981882302
:1002400009F58981882F90E0880F991F28AD39AD75
:10025000820F931FFC01408151818981282F30E05A
:1002600069E2629FC001639F900D11242E813F813E
:10027000280F391F8091100190911101B9010E943E
:10028000EF032CC08981882F90E0880F991F28AD3B
:1002900039AD820F931FFC01408151818981282F44
:1002A00030E069E2629FC001639F900D11242E81AE
:1002B0003F81B901680F791F8981882F90E09C01E7
:1002C00021503109E9E2E29FC001E39F900D112422
:1002D0002E813F81820F931F0E94EF0389818F5FE0
:1002E000898399818FA9981708F4A8CF8E819F815F
:1002F00090930F0180930E018FA9282F30E04AAD13
:100300005BADCE01C196B9010E94530089A99AA99B
:10031000892B19F480E090E01DC02BA93CA98FA97E
:10032000682F70E08E819F81AE014F5C5F4F0E940D
:100330002E049B838A838A819B81892B39F4CE0189
:10034000C1960E949C0080E090E004C00E940F05CE
:100350007894FFCF2CAD3DAD0FB6F8943EBF0FBEE5
:100360002DBF2296EEADFFAD22970FB6F894FEBFDB
:100370000FBEEDBFCF5BDF4F0FB6F894DEBF0FBEF1
:10038000CDBFDF91CF910895CF93DF93CDB7DEB787
:10039000A6970FB6F894DEBF0FBECDBF9A8B898BA0
:1003A0001A8219828EC080E090E0A0E8BFE38B83C0
:1003B0009C83AD83BE8320E030E04AE755E46B8147
:1003C0007C818D819E810E94BB056F8B788F898F88
:1003D0009A8F8F89988DA98DBA8D8F839887A987D9
:1003E000BA8720E030E040E85FE36F817885898557
:1003F0009A850E94350588232CF481E090E09C8743
:100400008B8754C020E03FEF4FE757E46F8178853A
:1004100089859A850E94B6051816D4F520E030E04B
:1004200040E251E46B817C818D819E810E94BB05FD
:100430006B8F7C8F8D8F9E8F8B8D9C8DAD8DBE8DA8
:100440008B8B9C8BAD8BBE8B6B897C898D899E89B8
:100450000E943A056F8F78A389A39AA3AF8DB8A1A4
:10046000BC87AB8710C080E991E09E878D878D8522
:100470009E850197F1F79E878D8700008B859C856F
:1004800001979C878B878B859C85892B61F719C089
:100490006F81788589859A850E943A056BA37CA334
:1004A0008DA39EA38BA19CA19C878B878B859C850C
:1004B000988B8F878F8598890197F1F7988B8F8715
:1004C000000089819A8101969A83898329813A81E2
:1004D00089899A89281739070CF465CF0000000034
:1004E000A6960FB6F894DEBF0FBECDBFDF91CF91B9
:1004F0000895CF93DF93CDB7DEB784E290E0FC019F
:10050000208184E290E02062FC01208385E290E07B
:10051000FC01208185E290E02062FC01208388EECE
:1005200093E00E94C40185E290E0FC01208185E215
:1005300090E02F7DFC01208388EE93E00E94C401AF
:10054000E5CFCF93DF93CDB7DEB784E290E0FC0137
:10055000208184E290E02061FC01208385E290E02C
:10056000FC01208185E290E02F7EFC01208388EE53
:1005700093E00E94C40185E290E0FC01208185E2C5
:1005800090E02061FC01208388EE93E00E94C4018A
:10059000E5CFCF93DF93CDB7DEB784E290E0FC01E7
:1005A000208184E290E02860FC01208385E290E0D5
:1005B000FC01208185E290E02860FC0120838AEF25
:1005C00090E00E94C40185E290E0FC01208185E278
:1005D00090E0277FFC0120838AEF90E00E94C40115
:1005E00085E290E0FC01208185E290E02860FC013A
:1005F00020838AEF90E00E94C40185E290E0FC0134
:10060000208185E290E0277FFC01208388EE93E043
:100610000E94C401CBCFCF93DF9300D00F92CDB710
:10062000DEB784E290E0FC01208184E290E0246067
:10063000FC0120838EEE92E09A8389831B8285E2FF
:1006400090E0FC01208185E290E02460FC012083A1
:1006500089819A810E94C40185E290E0FC01208199
:1006600085E290E02B7FFC0120838B81882331F48D
:1006700089819A8101979A83898305C089819A81AA
:1006800001969A83898389819A81C3971CF481E0BA
:100690008B83D5CF89819A818E3E924084F21B82D2
:1006A000CECFCF93DF93CDB7DEB72B970FB6F894AD
:1006B000DEBF0FBECDBF1A82198288E0E6E0F1E00E
:1006C000DE01149601900D928A95E1F784E08B8308
:1006D000CE01049640E850E0BC018B810E94B0003E
:1006E0009A83898389819A812B960FB6F894DEBF0D
:1006F0000FBECDBFDF91CF910895FF93EF93EFB77A
:10070000EF93E0911001F09111010482158226828D
:100710003782408651866286738684869586A68651
:10072000B786C08AD18AE28AF38A048B158B268B1E
:10073000378B408F518F628F738F848F958FA68FE9
:10074000B78FC0A3D1A3BF91CF91DF91BF93C2A3B5
:10075000D3A3CDB7C283CEB7C383C4A1D5A1CC23C5
:1007600031F4DD2321F4C0910E01D0910F019EA13F
:10077000992329F0ECA1FDA1EF010C94AF03C093E4
:100780001001D09311010A800DBE0B800EBE0F9098
:100790000FBE0C801D802E803F80488459846A845F
:1007A0007B848C849D84AE84BF84C888D988EA8881
:1007B000FB880C891D892E893F89488D598D6A8D4A
:1007C0007B8D8C8D9D8DAE8DBF8DEAA1FBA1EF93AE
:1007D000FF93E8A1F9A1EF01FF91EF911895CF9355
:1007E000DF9300D000D000D0CDB7DEB79A838983E5
:1007F0007C836B835E834D8389819A81892B39F059
:1008000089819A812B813C81FC0135A324A38B81B2
:100810009C812D813E81FC0130A727A38B819C8187
:100820009093150180931401209114018B819C8178
:10083000FC01248F209115018B819C81FC01258F67
:100840008B819C81FC0116A2000026960FB6F894BD
:10085000DEBF0FBECDBFDF91CF910895CF93DF9361
:10086000CDB7DEB766970FB6F894DEBF0FBECDBF2B
:10087000988B8F877A8B698B5C8B4B8B3E8B2D8B08
:100880002D893E8989899A892817390718F480E0CB
:1008900090E097C08F8598899A8389838B899C89FA
:1008A000FC018081918198878F838B899C89FC01D1
:1008B000848195819A8789871C821B821E821D8272
:1008C00074C089819A81892B09F478C08D819E81B9
:1008D000AC014F5F5F4F29853A85429FC001439F1E
:1008E000900D529F900D112401972F813885280F6C
:1008F000391F89819A81FC013183208389819A8102
:10090000FC012081318189819A81FC01338322831A
:100910008CEF94E0880F991F9C878B878B858D8740
:100920008B859C85892F99278E8789819A81FC01E7
:1009300082819381AC014150510929813A81F901A9
:10094000538342832D85FC01208389819A81FC0198
:1009500082819381AC014150510929813A81F90189
:10096000538342832E85FC01208389819A81FC0177
:1009700082819381AC014150510929813A81F90169
:1009800053834283FC01108289819A81FC0184A1F6
:1009900095A19A8389838B819C8101969C838B830B
:1009A0008D819E8101969E838D832B813C818D89D3
:1009B0009E892817390708F484CF01C0000081E020
:1009C00090E066960FB6F894DEBF0FBECDBFDF9104
:1009D000CF910895CF93DF9300D0CDB7DEB79A8340
:1009E000898389819A8121E0FC0126A300000F9070
:1009F0000F90DF91CF910895CF93DF9300D0CDB7C3
:100A0000DEB79A83898389819A81FC0187A190A5A9
:100A1000FC01099589819A810E94EA04FFCFCF9356
:100A2000DF93CDB7DEB781E890E0FC01208181E85B
:100A300090E02960FC01208384E890E0FC011182B1
:100A4000108288E890E02FEF39EFFC01318320839A
:100A50008FE690E0FC0120818FE690E02260FC01AF
:100A6000208381E0DF91CF9108950E94690508F409
:100A700081E008950E94950588F09F5798F0B92F5E
:100A80009927B751B0F0E1F0660F771F881F991FC3
:100A90001AF0BA95C9F714C0B13091F00E94AF05B1
:100AA000B1E008950C94AF05672F782F8827B85FC1
:100AB00039F0B93FCCF3869577956795B395D9F71B
:100AC0003EF490958095709561957F4F8F4F9F4F25
:100AD0000895990F0008550FAA0BE0E8FEEF1616CF
:100AE0001706E807F907C0F012161306E407F50722
:100AF00098F0621B730B840B950B39F40A2661F096
:100B0000232B242B252B21F408950A2609F4A14038
:100B1000A6958FEF811D811D089557FD9058440FB4
:100B2000551F59F05F3F71F04795880F97FB991F4C
:100B300061F09F3F79F08795089512161306140609
:100B4000551FF2CF4695F1DF08C016161706180696
:100B5000991FF1CF86957105610508940895E89471
:100B6000BB2766277727CB0197F908950E9469056F
:100B700008F48FEF08950E94CE050C943F060E9462
:100B8000310638F00E94380620F0952311F00C94BD
:100B900028060C942E0611240C94B0050E948D0595
:100BA00070F3959FC1F3950F50E0551F629FF001C0
:100BB000729FBB27F00DB11D639FAA27F00DB11DD9
:100BC000AA1F649F6627B00DA11D661F829F222762
:100BD000B00DA11D621F739FB00DA11D621F839FE9
:100BE000A00D611D221F749F3327A00D611D231FBF
:100BF000849F600D211D822F762F6A2F11249F570D
:100C000050409AF0F1F088234AF0EE0FFF1FBB1F0F
:100C1000661F771F881F91505040A9F79E3F5105CE
:100C200080F00C9428060C94B0055F3FE4F3983EE6
:100C3000D4F3869577956795B795F795E7959F5F78
:100C4000C1F7FE2B880F911D9695879597F908950A
:100C500097F99F6780E870E060E008959FEF80EC6F
:100C6000089500240A941616170618060906089512
:100C700000240A9412161306140605060895092E78
:100C80000394000C11F4882352F0BB0F40F4BF2BE7
:100C900011F460FF04C06F5F7F4F8F4F9F4F089527
:100CA0000F931F93CF93DF93869F8001879F100D33
:100CB000969F100D1124C8010E946C06EC0100974C
:100CC00029F0A80170E060E00E949407CE01DF9156
:100CD000CF911F910F9108950F931F93CF93DF939F
:100CE0009C01029710F422E030E0E0911601F091AF
:100CF000170190E080E0B0E0A0E0309791F4009719
:100D000009F445C0821B930B84309105B8F58A81A4
:100D10009B816115710569F1FB0193838283FE015B
:100D200011C0408151810281138142175307F0F0B5
:100D30004217530799F4109761F012960C9312978B
:100D400013961C933296CF01DF91CF911F910F9193
:100D500008950093160110931701F4CF009719F02E
:100D60004817590718F4CA01BD01EF01DF01F80166
:100D7000C4CF9093170180931601D1CFFE01E80FE5
:100D8000F91F21933193029799838883DCCF809157
:100D9000180190911901892B41F4809102019091E1
:100DA00003019093190180931801809100019091A3
:100DB0000101009741F48DB79EB740910401509115
:100DC0000501841B950B409118015091190148179A
:100DD000590708F0B8CF841B950B8217930708F4C6
:100DE000B2CFB9016E5F7F4F8617970708F4ABCF7C
:100DF000640F751F7093190160931801FA01219314
:100E00003193A1CFCF93DF939C010097E9F0FC01D0
:100E1000329713821282C0911601D0911701DE0120
:100E200090E080E02097A1F480819181280F391F04
:100E300080911801909119018217930709F067C0FA
:100E4000F0931901E0931801DF91CF910895DA0131
:100E5000AE17BF0708F041C012964D915C911397F1
:100E6000CD014115510599F7DC011396FC93EE93E2
:100E700012974D915D91A40FB51FEA17FB0781F4FE
:100E8000208131812E5F3F4F240F351FDC011196E9
:100E90003C932E932281338113963C932E93129789
:100EA000B0E0A0E08A819B810097B1F5FE018191BD
:100EB0009191E80FF91F80911801909119018E17F7
:100EC0009F0711F6109759F510921701109216010D
:100ED000D0931901C0931801B7CFB383A283408187
:100EE0005181240F351FA217B30771F44E5F5F4F76
:100EF0002D913C911197420F531F518340831296BD
:100F00002D913C9133832283009709F0ADCFF0936C
:100F10001701E093160198CFDE01EC01C3CF1396C1
:100F20001C921E921297D4CFDC0101C06D934150E8
:0A0F30005040E0F70895F894FFCF59
:0E0F3A0000001A0120007902A102C9020B0377
:00000001FF
