:100000000C9434000C9451000C9451000C94510049
:100010000C9451000C9451000C9474170C944119D9
:100020000C9451000C9451000C9451000C9451000C
:100030000C9451000C9451000C947B010C945100D1
:100040000C9451000C9451000C9451000C945100EC
:100050000C9451000C9451000C9451000C945100DC
:100060000C9451000C94510011241FBECFEFD8E026
:10007000DEBFCDBF14E0A0E0B1E0E8E2F5E302C0EE
:1000800005900D92A833B107D9F725E0A8E3B4E0B5
:1000900001C01D92AB36B207E1F70E94021A0C9420
:1000A000661A0C9453001F920F920FB60F921124F0
:1000B00063E170E081EA91E00E946102FFCFF89471
:1000C0001092B20089EF8093B30082E08093B00079
:1000D00094E09093B1008093700017BA60E270E0F2
:1000E00082E592E00E94610278946CE170E083E71F
:1000F00092E00C946102F89416BC82E387BD82E022
:1001000084BD93E095BD80936E0015BA78940895F0
:100110000E949A000E947B0065E170E080E992E015
:100120000E9461020E945F0061E170E086EA92E055
:100130000C946102CF92DF92EF92FF920F931F9384
:10014000CF93DF9362E270E088EB92E00E9461025D
:1001500000E511E0C0E0D0E0D12CFF24F3942FE0C3
:10016000E22EEC9EF001ED9EF00D1124E05BFE4FBF
:1001700083859485019789F581819281A381B481DA
:1001800085839683A783B087CC24C394CD0CED2DB3
:10019000F0E0EE0FFF1FE75CFB4F118300836CE183
:1001A00070E08BED92E00E946102DC2C015F1F4F3A
:1001B000CD2B71F062E270E08AE393E0DF91CF91A2
:1001C0001F910F91FF90EF90DF90CF900C94610200
:1001D00081E0C82F80E0D82FC4CF83859485892BF8
:1001E00099F4CC24CA94CF0CEF2DF0E0EE0FFF1F52
:1001F000E75CFB4F1183008366E270E088EF92E0DA
:100200000E946102FC2CD2CF6AE170E08FE193E0A2
:100210000E946102CBCFCF93DF93EC016CE170E0E1
:100220008DE593E00E946102E0913904F0913A0477
:1002300083859485A0913B04B0913C04892B59F0AF
:100240001B968D919C916BE170E08AE793E0DF91C2
:10025000CF910C9461029C9188819813F4CFB09354
:100260003A04A0933904E0933B04F0933C0481E00A
:1002700090E09C878B8789819A81AB81BC818D833B
:100280009E83AF83B887DFCFCF93DF93EC016BE121
:1002900070E086E993E00E946102E0913904F091F8
:1002A0003A0490818881981789F0E0913B04F0919D
:1002B0003C049081888121E0981749F06AE170E060
:1002C00082EB93E0DF91CF910C94610220E081E01A
:1002D000820F90E0880F991F43E0421B50E0BC0161
:1002E000675C7B4F895C9B4F0E944B1AD0933C0408
:1002F000C0933B04E3CF1F920F920FB60F921124CD
:100300002F933F934F935F936F937F938F939F931D
:10031000AF93BF93EF93FF93809138048F5F8093E7
:10032000380465E00E94391A9093380480913804AB
:10033000811153C0A9E3B4E0ED91FD9183859485CB
:10034000892B09F44AC045815681678170854150E7
:100350005109610971094583568367837087458117
:10036000568167817085452B462B472B89F5818502
:100370009285019741F44181528163817481458363
:1003800056836783708790912D0180912C01891786
:1003900020F585859685E0912F0120912C016091B3
:1003A0002D012617A8F4F0E0EE0FFF1FE05DFE4FD1
:1003B0009183808380912C018F5F80932C018091A9
:1003C0002F018F5F80932F010E94391A90932F0184
:1003D00084E0AD33B80709F0AFCF80912C018823BA
:1003E000E9F0E0912E01F0E0EE0FFF1FE05DFE4F1F
:1003F0000190F081E02D80912E018F5F80932E017E
:1004000060912D010E94391A90932E0180912C0148
:10041000815080932C01309709F00995FF91EF915D
:10042000BF91AF919F918F917F916F915F914F910C
:100430003F912F910F900FBE0F901F9018958CE257
:1004400084B981E58CBD2A982A9A8DB58EB5089518
:100450008EBD0DB407FEFDCF8EB508951092C50078
:1004600087E68093C40088E08093C10086E0809393
:10047000C20008959091C00095FFFCCF8093C60004
:100480000895EF92FF920F931F93CF93DF937C0118
:100490008B018DE394E00E94AF17E7010E0D1F1D45
:1004A000C017D10751F48DE394E0DF91CF911F91F4
:1004B0000F91FF90EF900C94B61789910E943A0229
:1004C000EFCFEF92FF920F931F93CF93DF937C01B7
:1004D0008B018DE394E00E94AF17E7010E0D1F1D05
:1004E000C017D10781F48AE00E943A028DE00E9491
:1004F0003A028DE394E0DF91CF911F910F91FF902D
:10050000EF900C94B61789910E943A02E9CF0895B2
:10051000FB0180810895FB01408308952A988FEFA5
:100520000E9428022A9A08952A980E9428022A9A4C
:1005300008950F931F93CF93DF932A98EC018C01BA
:10054000060F171FC017D10731F42A9ADF91CF91F8
:100550001F910F9108958FEF0E9428028993F2CF87
:100560000F931F93CF93DF932A98EC018C01060F12
:10057000171FC017D10731F42A9ADF91CF911F912D
:100580000F91089589910E942802F3CF089508954C
:1005900008959C01CB012115310511F0009721F43C
:1005A00027E832E087EC92E030933F0120933E0150
:1005B000909341018093400108959C01CB01211546
:1005C000310511F0009721F428EC32E086EC92E03E
:1005D000309343012093420190934501809344015D
:1005E00008959C01CB01409134015091350150FF99
:1005F000FFCF2115310511F0009721F428E832E0F2
:100600008BE892E030934701209346019093490193
:100610008093480108959C01CB0140913401509191
:10062000350151FFFFCF2115310511F0009721F45D
:100630002EE832E084E992E03093470120934601AE
:10064000909349018093480108959C01CB0140910A
:1006500034015091350151FFFFCF2115310511F0C3
:10066000009721F429E932E080EB92E030934B01CE
:1006700020934A0190934D0180934C010895CF93AC
:10068000DF93CDB7DEB762970FB6F894DEBF0FBE2B
:10069000CDBF26E030E0AE014F5F5F4F60E079E014
:1006A00080E090E00E94C80724E030E0AE01415FA6
:1006B0005F4F60E071E080E090E00E94C80724E0B6
:1006C00030E0AE01455F5F4F60E075E080E090E0B4
:1006D0000E94C80724E030E0AE01495F5F4F60E050
:1006E0007FE080E090E00E94C80740E860E070E0B2
:1006F000CB010E945D0760E070E0CB010E94F40630
:1007000026E030E0AE014F5F5F4F60E079E080E0CF
:1007100090E00E944A0824E030E0AE01415F5F4F64
:1007200060E071E080E090E00E944A0824E030E060
:10073000AE01455F5F4F60E075E080E090E00E94B1
:100740004A0824E030E0AE01495F5F4F60E07FE09F
:1007500080E090E00E944A0862960FB6F894DEBFEF
:100760000FBECDBFDF91CF910895CF92DF92EF9270
:10077000FF920F931F93CF93DF938C01EB010E94A5
:100780003F030115110551F1F8018081319698015F
:10079000285F3F4F813134F08FEF23C09191890F53
:1007A0008131D4F7E217F307C9F798E0C92E9FE12A
:1007B000D92EE12CF12CF80141918F01C701B6012E
:1007C0000E945D07F0E2CF0ED11CE11CF11C88E015
:1007D000C81680E2D806E104F10469F7209751F4C5
:1007E00080E0DF91CF911F910F91FF90EF90DF900C
:1007F000CF900895888181317CF6FE0131969E016B
:10080000285F3F4F2E173F07C1F488E0C82E8EE1C6
:10081000D82EE12CF12C4991C701B6010E945D0749
:10082000E0E2CE0ED11CE11CF11CF8E0CF16FFE196
:10083000DF06E104F10479F7D3CF9191890F81317B
:100840000CF3AACFCF92DF92EF92FF920F931F93F8
:10085000CF93DF93092F10E0482F407F60E075E1D0
:1008600080E090E00E945D0788E0C82E82E0D82EEC
:10087000E12CF12CC0E0D0E0C8010C2E02C095950F
:1008800087950A94E2F780FF05C04FE1C701B601E2
:100890000E945D07219680E2C80ED11CE11CF11C6C
:1008A00028E0C21623E0D206E104F10429F7DF9123
:1008B000CF911F910F91FF90EF90DF90CF9008950F
:1008C000CF9360E075E180E090E00E94F406C82FCD
:1008D00060E077E180E090E00E94F40690E0982FDD
:1008E0008827C07F8C0F911DCF910895CF93482FFB
:1008F000C92F60E076E180E090E00E945D074C2F18
:1009000060E078E180E090E0CF910C945D07CF93B8
:1009100060E076E180E090E00E94F406C82F60E09D
:1009200078E180E090E00E94F40690E0982F88271C
:100930008C0F911DCF91089560E07EE280E090E001
:100940000E94F4068170089560E07EE280E090E00D
:100950000E94F406982F987381E0903309F080E0AC
:10096000089560E07EE280E090E00E94F406482F67
:100970004F7760E07EE280E090E00E945D0760E0FB
:100980007EE280E090E00E94F406482F406860E03C
:100990007EE280E090E00C945D07FC0141E0808104
:1009A000813009F040E04295440F440F407C818142
:1009B000813049F4486360E07EE280E090E00E948C
:1009C0005D070C94B10482819381913031F48130C0
:1009D00011F44861F0CF4860EECF813061F740619B
:1009E000EACFCF93DF93EC0160E07EE280E090E01D
:1009F0000E94F40686FB332730F9982F987321E084
:100A0000903219F0983309F020E038832983282F99
:100A10002073203181F021E0903209F020E02A8318
:100A20008872883051F081E0903209F080E08B8349
:100A3000DF91CF91089521E0F2CF81E0F8CFCF93FD
:100A4000DF93EC0160E07EE280E090E00E94F4063B
:100A500082FB992790F99B83869581708A83DF9129
:100A6000CF910895CF93C82F60E07EE280E090E0C0
:100A70000E94F406482F8FEF46FF1AC0477CC13012
:100A8000C9F4406360E07EE280E090E00E945D0790
:100A90000E94B10460E07EE280E090E00E94F406F3
:100AA000982FC13049F4907381E0911180E08195D5
:100AB000CF9108954863E6CF9873F6CF1F93CF93F5
:100AC000DF93FC01EB01409708F074C0E859F54E44
:100AD0000C94451A0E943F0380E06DC0685F7F4F11
:100AE000209711F460E070E0CE01DF91CF911F916B
:100AF0000C94B503888199810E942204EDCF0E9455
:100B0000600499838883E8CF888199810E94760464
:100B1000E3CF0E948704F5CF498160E073E180E074
:100B200090E00E945D07488160E074E180E090E021
:100B30000E945D07D1CF60E073E180E090E00E9409
:100B4000F406182F60E074E180E090E00E94F40663
:100B5000212F30E0322F2227280F311D398328839F
:100B6000BBCF809136018883809137018983809142
:100B700038018A83809139018B8380913A018C837B
:100B800080913B018D831E82A7CF0E94B104A4CF28
:100B9000CB010E94CD04A0CFCB010E94F1049CCFD9
:100BA0008881DF91CF911F910C9432050E94A4049B
:100BB0008F3F41F48FEFDF91CF911F9108950E94F5
:100BC0009C04F6CF888388CFCF93DF93EC0126E097
:100BD00030E0AC0160E079E080E090E00E944A08FB
:100BE000AE01425F5F4F24E030E060E071E080E002
:100BF00090E00E944A08AE01465F5F4F24E030E07B
:100C000060E075E080E090E00E944A08AE014A5F33
:100C10005F4F24E030E060E07FE080E090E00E9401
:100C20004A08E0E4F4E08A8980838B8981838C8997
:100C300082838D8983838E899F8990933F048093DB
:100C40003E04DF91CF910895CF93DF93EC0126E02E
:100C500030E0AC0160E079E080E090E00E94C807FD
:100C6000AE01425F5F4F24E030E060E071E080E081
:100C700090E00E94C807AE01465F5F4F24E030E07D
:100C800060E075E080E090E00E94C807AE014A5F36
:100C90005F4F24E030E060E07FE080E090E00E9481
:100CA000C807E0E4F4E080818A8B81818B8B8281AC
:100CB0008C8B83818D8B80913E0490913F049F8B20
:100CC0008E8BDF91CF910895CF93DF93EC01857CDC
:100CD000892B81F460E070E0CB010E94F4064C2F78
:100CE000482B60E070E0CB010E945D0780E0DF915F
:100CF000CF9108958FEFFBCF60E070E0CB010E94B1
:100D0000F40690E00895CF93DF93EC01488160E012
:100D10007BE180E090E00E945D074A8160E079E13C
:100D200080E090E00E945D07498160E07AE180E028
:100D300090E0DF91CF910C945D070F931F93CF93B9
:100D40008C0160E07BE180E090E00E94F406F80115
:100D5000808360E079E180E090E00E94F406C82F93
:100D600060E07AE180E090E00E94F4062C2F30E011
:100D7000322F2227280F311DF80132832183CF9192
:100D80001F910F910895CF93DF939C01EB01833066
:100D9000910509F160F48130910599F00297A9F06D
:100DA000CB010E94E40580E0DF91CF910895049784
:100DB000B9F08FEF25303105B9F7CB010E949D06C0
:100DC000F2CFCB010E942406EECF88819981DF917A
:100DD000CF910C9464060E947C0699838883E3CFAC
:100DE000CB010E948306DFCF8F929F92AF92BF927A
:100DF000CF92DF92EF92FF92CF93DF9300D00F92CA
:100E0000CDB7DEB76B017C01E0913E01F0913F016F
:100E10000995E0914201F09143010995C701AA2784
:100E2000BB278D2C9E2CAF2CBB2420914A013091E6
:100E30004B01232B31F0E0914C01F0914D013097A3
:100E400081F5E0914801F09149010995E09148014F
:100E5000F0914901882D0995E0914801F0914901EF
:100E60008C2D0995E0914601F09147010995F82EE6
:100E7000E0914401F09145010995E0914001F09124
:100E8000410109958F2D0F900F900F90DF91CF9119
:100E9000FF90EF90DF90CF90BF90AF909F908F909A
:100EA00008958983DC24CD24DC24DB82CA8263E0BC
:100EB00070E0CE0101960995D5CF8F929F92AF92A7
:100EC000BF92CF92DF92EF92FF921F93CF93DF9367
:100ED00000D000D0CDB7DEB76B017C01142FE091BC
:100EE0003E01F0913F010995E0914201F0914301EB
:100EF000099546015701689482F8E0914C01F09100
:100F00004D01C701AA27BB27CD2CDE2CEF2CFF24D7
:100F1000309789F5E0914801F09149010995E091F8
:100F20004801F09149018C2D0995E0914801F0911B
:100F30004901882D0995E0914801F0914901812FDF
:100F40000995E0914401F09145010995E091400136
:100F5000F091410109950F900F900F900F90DF9144
:100F6000CF911F91FF90EF90DF90CF90BF90AF9007
:100F70009F908F90089589839824892498249B8238
:100F80008A821C8364E070E0CE0101960995D9CF76
:100F90004F925F926F927F92AF92BF92CF92DF9209
:100FA000EF92FF920F931F93CF93DF9300D00F9296
:100FB000CDB7DEB76B017C015A018901E0913E019A
:100FC000F0913F010995E0914201F09143010995AB
:100FD000C701AA27BB274D2C5E2C6F2C77242091AC
:100FE0004A0130914B01232B31F0E0914C01F091FB
:100FF0004D013097E1F5E0914801F09149010995E3
:10100000E0914801F0914901842D0995E091480152
:10101000F09149018C2D099575010A0D1B1D0E15C6
:101020001F05E1F4E0914401F09145010995E0913B
:101030004001F091410109950F900F900F90DF91C1
:10104000CF911F910F91FF90EF90DF90CF90BF90C5
:10105000AF907F906F905F904F900895E091460120
:10106000F09147010995F70181937F01D8CF8983DA
:10107000DC24CD24DC24DB82CA8263E070E0CE0174
:1010800001960995E0914A01F0914B01B801C50123
:101090000995C8CF6F927F928F929F92AF92BF9225
:1010A000CF92DF92EF92FF920F931F93CF93DF9334
:1010B00000D00F92CDB7DEB76B017C013A018901F8
:1010C000E0913E01F0913F010995E0914201F091DC
:1010D0004301099546015701689482F8E0914C015B
:1010E000F0914D01C701AA27BB27CD2CDE2CEF2C98
:1010F000FF243097E1F5E0914801F091490109950D
:10110000E0914801F09149018C2D0995E091480149
:10111000F0914901882D09957301060D171D0E15D3
:101120001F05E1F4E0914401F09145010995E0913A
:101130004001F091410109950F900F900F90DF91C0
:10114000CF911F910F91FF90EF90DF90CF90BF90C4
:10115000AF909F908F907F906F900895E09148019D
:10116000F0914901D7018D917D010995D8CF8983EF
:101170009824892498249B828A8263E070E0CE01BF
:1011800001960995E0914C01F0914D01B801C30120
:101190000995C8CF0F931F93CF93DF93CDB7DEB7D9
:1011A0002A970FB6F894DEBF0FBECDBF24E0829F12
:1011B000C0011124019623E0880F991F2A95E1F7B9
:1011C0009C01305EA901330F660B770B49835A836C
:1011D0006B837C839F5D9C01990F440B550B2D8382
:1011E0003E834F8358871A86198669817A818B815D
:1011F0009C810E94F406082F10E0102F00276D81BB
:101200007E818F8198850E94F406080F111D0115BB
:101210001105C1F069817A818B819C810E94F4065D
:10122000482F50E0742F66277A8769876D817E8109
:101230008F8198850E94F40629853A85280F311DF3
:101240003A87298749855A854017510771F6CA019F
:101250002A960FB6F894DEBF0FBECDBFDF91CF91B7
:101260001F910F9108950F931F93CF93DF93CDB7E5
:10127000DEB72A970FB6F894DEBF0FBECDBF24E0CD
:10128000829FC0011124019623E0880F991F2A959F
:10129000E1F79C013A5DA901330F660B770B498397
:1012A0005A836B837C83995D9C01990F440B550B8A
:1012B0002D833E834F8358871A86198669817A81E8
:1012C0008B819C810E94F406082F10E0102F0027CC
:1012D0006D817E818F8198850E94F406080F111D13
:1012E00001151105C1F069817A818B819C810E9471
:1012F000F406482F50E0742F66277A8769876D813E
:101300007E818F8198850E94F40629853A85280F71
:10131000311D3A87298749855A854017510771F64B
:10132000CA012A960FB6F894DEBF0FBECDBFDF917B
:10133000CF911F910F910895AF92BF92CF92DF92FC
:10134000EF92FF920F931F93CF93DF93CDB7DEB74A
:101350002E970FB6F894DEBF0FBECDBF6B018A018A
:10136000452B09F47AC024E0829F700111245701B3
:101370003FEFA31AB30A83E0AA0CBB1C8A95E1F7DE
:10138000C5019C5D9C01990F440B550B29833A8341
:101390004B835C83CA01B9010E94F40689873BED47
:1013A000B31AC501BB0CAA0BBB0B8D839E83AF8305
:1013B000B887BC01CD010E94F406B985AB2FB0E01F
:1013C0003A2F2227280F311D3E872D8732E0E30E6A
:1013D000F11C23E0EE0CFF1C2A95E1F74D855E859C
:1013E000CA01A0E0B0E0BA2FA92F982F88279C014E
:1013F000AD012E0D3F1D411D511D29873A874B8799
:101400005C879801A60169857A858B859C850E94F9
:101410004A084D855E85400F511F5A8749874A8586
:1014200069817A818B819C810E945D0749856D81EC
:101430007E818F8198852E960FB6F894DEBF0FBE01
:10144000CDBFDF91CF911F910F91FF90EF90DF9073
:10145000CF90BF90AF900C945D072E960FB6F89486
:10146000DEBF0FBECDBFDF91CF911F910F91FF90D7
:10147000EF90DF90CF90BF90AF900895AF92BF9262
:10148000CF92DF92EF92FF920F931F93CF93DF9350
:10149000CDB7DEB72E970FB6F894DEBF0FBECDBF27
:1014A0006B018A01452B09F47AC024E0829F700108
:1014B000112457013FEFA31AB30A83E0AA0CBB1C07
:1014C0008A95E1F7C501985D9C01990F440B550B76
:1014D00029833A834B835C83CA01B9010E94F406D5
:1014E000898737EDB31AC501BB0CAA0BBB0B8D83E3
:1014F0009E83AF83B887BC01CD010E94F406B985F5
:10150000AB2FB0E03A2F2227280F311D3E872D87C1
:1015100033E0E30EF11C23E0EE0CFF1C2A95E1F70B
:101520004D855E85CA01A0E0B0E0BA2FA92F982FA3
:1015300088279C01AD012E0D3F1D411D511D29879E
:101540003A874B875C879801A60169857A858B85E8
:101550009C850E94C8074D855E85400F511F5A87A4
:1015600049874A8569817A818B819C810E945D07C8
:1015700049856D817E818F8198852E960FB6F8946E
:10158000DEBF0FBECDBFDF91CF911F910F91FF90B6
:10159000EF90DF90CF90BF90AF900C945D072E96A8
:1015A0000FB6F894DEBF0FBECDBFDF91CF911F9174
:1015B0000F91FF90EF90DF90CF90BF90AF90089584
:1015C000EF92FF920F931F93CF93DF93CDB7DEB7C8
:1015D0002B970FB6F894DEBF0FBECDBF7B0124E082
:1015E000829F800111240F5F1F4F83E0000F111FA6
:1015F0008A95E1F7C801985D9C01990F440B550B42
:1016000029833A834B835C83CA01B9010E94F406A3
:101610008987175DC801110FAA0BBB0B8D839E83B1
:10162000AF83B887BC01CD010E94F406B985AB2F0A
:10163000B0E03A2F2227E80EF11C2E0D3F1D3B870C
:101640002A874B8569817A818B819C810E945D0705
:101650004A856D817E818F8198852B960FB6F8948F
:10166000DEBF0FBECDBFDF91CF911F910F91FF90D5
:10167000EF900C945D07EF92FF921F93CF93DF934F
:1016800000D000D000D0CDB7DEB7182F8FEF1930C3
:1016900008F077C0E12EF12C44E0149F9001112452
:1016A0002F5F3F4F93E0220F331F9A95E1F73E8360
:1016B0002D83C90193959C01990F440B550B2983E8
:1016C0003A834B835C8340E169817A818B819C8181
:1016D0000E945D0769817A818B819C810E94F4065A
:1016E0008111F8CF8D819E819E5F9C01990F440BE3
:1016F000550B29833A834B835C834FE169817A815F
:101700008B819C810E945D0781E090E002C0880F80
:10171000991F1A95E2F78095909520915E0430917B
:101720005F042823392330935F0420935E042091C3
:101730005C0430915D048223932390935D04809335
:101740005C04F701EE0FFF1FE45BFB4F1182108278
:10175000F701EC5BFB4F10824D815E815D5FCA013A
:10176000092E000CAA0BBB0B89839A83AB83BC8325
:1017700069817A818B819C810E94F4068111F8CF66
:1017800081E00F900F900F900F900F900F90DF91CE
:10179000CF911F91FF90EF9008957F928F929F922B
:1017A000AF92BF92CF92DF92EF92FF920F931F936F
:1017B000CF93DF93CDB7DEB728970FB6F894DEBF8F
:1017C0000FBECDBF182F762E6A01022F8FEF193072
:1017D000E8F421E0621731F08EEF860F833050F18C
:1017E0008BEF14C024E030E0AE014F5F5F4F60E04C
:1017F0007FE080E090E00E94C80789819A81AB81F8
:10180000BC81892B8A2B8B2BA9F48DEF28960FB6E0
:10181000F894DEBF0FBECDBFDF91CF911F910F9126
:10182000FF90EF90DF90CF90BF90AF909F908F9000
:101830007F90089502FDC2C0002341F031E073168D
:1018400009F4B8C042E0741609F4BAC0812F0E94AE
:101850003B0BA12EB12C54E0159F700111248FEF8A
:10186000E81AF80A23E0EE0CFF1C2A95E1F7402F56
:10187000407F4729C7010F2C000CAA0BBB0BBC01F2
:10188000CD010E945D07C114D10481F4C0904E01C6
:10189000D0904F01C6010196AFEECA16AFEFDA063F
:1018A00009F497C090934F0180934E01C7019C5F4C
:1018B0009C01990F440B550B2D833E834F83588712
:1018C0004D2D6D817E818F8198850E945D07C701B6
:1018D0009B5F9C01990F440B550B2D833E834F83D7
:1018E00058874C2D6D817E818F8198850E945D0780
:1018F000C70193959C01990F440B550B2D833E8393
:101900004F83588741E06D817E818F8198850E9449
:101910005D076D817E818F8198850E94F40681111B
:10192000F8CF81E090E0012E02C0880F991F0A9441
:10193000E2F78095909520915E0430915F04282312
:10194000392300FB882480F8912C012E02C0880CDA
:10195000991C0A94E2F7822A932A90925F0480925B
:101960005E0420915C0430915D0482239323909364
:101970005D0480935C04F501EE0FFF1FE45BFB4FF9
:1019800011821082F501EC5BFB4F10823DEFF31AE0
:10199000C701FF0CAA0BBB0B8D839E83AF83B88757
:1019A0006D817E818F8198850E94F4068823C1F322
:1019B000812F2CCF802F8172811148CF8AEF26CFC3
:1019C00005FF02C007FFFACF04FF40CF07FFF6CFA5
:1019D0003DCF80E090EC90934F0180934E019FEEBD
:1019E000C92EDD24DA9462CF1F93CF93DF93CDB756
:1019F000DEB728970FB6F894DEBF0FBECDBF182F05
:101A00008FEF193008F056C044E0149F9001112464
:101A10002F5F3F4F83E0220F331F8A95E1F73E830C
:101A20002D83C901092E000CAA0BBB0B89839A8355
:101A3000AB83BC83BC01CD010E94F4068F70813062
:101A400009F042C08D819E819D5F9C01990F440BDE
:101A5000550B29833A834B835C83CA01B9010E94E9
:101A6000F406833199F54D815E815395CA01092EA3
:101A7000000CAA0BBB0B8D839E83AF83B88742E01B
:101A8000BC01CD010E945D076D817E818F819885AB
:101A90000E94F4068111F8CF69817A818B819C8143
:101AA0000E94F406843111F481E004C0812F0E9469
:101AB0003B0B8CEF28960FB6F894DEBF0FBECDBF60
:101AC000DF91CF911F9108958BEFF4CF8DEFF2CF7F
:101AD000DF92EF92FF920F931F93CF93DF93CDB7D7
:101AE000DEB72A970FB6F894DEBF0FBECDBFD82E53
:101AF0008B017A0128E08FEF2D1508F4E7C084E010
:101B0000D89EA00111244F5F5F4F23E0440F551F63
:101B10002A95E1F75A8749879A01032E000C440B56
:101B2000550B29833A834B835C83CA01B9010E9418
:101B3000F4068F70813009F0E1C089859A859D5F38
:101B40009C01990F440B550B2D833E834F8358877F
:101B5000CA01B9010E94F406833109F0D1C0D8014D
:101B60004D915C91119754274527542760E070E010
:101B7000762F652F542F442712968C911297480F79
:101B8000511D611D711D762F652F542F442713960B
:101B90008C9190E0A0E0B0E00197A109B109840F19
:101BA000951FA61FB71F8E3F9F4FAF4FBF4F08F027
:101BB000A9C085EFE114F10409F488C089859A85EC
:101BC000945F9C01990F440B550B29833A834B83F7
:101BD0005C8324E030E0A80169817A818B819C815B
:101BE0000E944A0889859A85905F9C01990F440B51
:101BF000550B29833A834B835C834F2D69817A810E
:101C00008B819C810E945D0789859A859F5E9C01DE
:101C1000990F440B550B29833A834B835C834E2DDC
:101C200069817A818B819C810E945D0789859A8573
:101C300093959C01990F440B550B29833A834B8351
:101C40005C8344E069817A818B819C810E945D077D
:101C500069817A818B819C810E94F4068111F8CF81
:101C600081E090E002C0880F991FDA94E2F720919A
:101C70005E0430915F0482239323892B09F044C0D2
:101C800049855A855E5FCA01092E000CAA0BBB0B61
:101C900089839A83AB83BC836D817E818F81988594
:101CA0000E94F406873111F481E010C069817A81C5
:101CB0008B819C810E94F40683FF16C048E06981F5
:101CC0007A818B819C810E945D0783EF2A960FB6F3
:101CD000F894DEBF0FBECDBFDF91CF911F910F9162
:101CE000FF90EF90DF9008956D817E818F819885C0
:101CF0000E94F4068111D0CF8CEFE8CF8BEFE6CFB6
:101D00008DEFE4CF84EFE2CF80E0E0CF1F93CF935D
:101D1000DF93CDB7DEB728970FB6F894DEBF0FBEBE
:101D2000CDBF182F8FEF193008F082C044E0149F08
:101D3000900111242F5F3F4F83E0220F331F8A95BC
:101D4000E1F73E832D83C901092E000CAA0BBB0BC2
:101D500089839A83AB83BC83BC01CD010E94F406C6
:101D60008F70813009F06EC08D819E8193959C01AA
:101D7000990F440B550B29833A834B835C8348E0CE
:101D800069817A818B819C810E945D0769817A815A
:101D90008B819C810E94F4068111F8CF81E090E054
:101DA000012E02C0880F991F0A94E2F7AC014095FA
:101DB000509520915C0430915D04242335233093A9
:101DC0005D0420935C0420915E0430915F048223C3
:101DD0009323892BC9F58D819E819D5F9C01990F6D
:101DE000440B550B29833A834B835C834D815E8181
:101DF0005E5FCA01092E000CAA0BBB0B8D839E836C
:101E0000AF83B88769817A818B819C810E94F406B7
:101E1000811102C081E00CC06D817E818F81988527
:101E20000E94F40683FFEECF812F0E943B0B83EFCD
:101E300028960FB6F894DEBF0FBECDBFDF91CF91CD
:101E40001F9108958BEFF4CF80E0F2CF9F92AF9275
:101E5000BF92CF92DF92EF92FF920F931F93CF9397
:101E6000DF93CDB7DEB728970FB6F894DEBF0FBE6D
:101E7000CDBFF82E962EE72E5A0128E06FEF7FEFA8
:101E8000CB012F1508F4A0C034E0F39E800111248B
:101E90000F5F1F4F83E0000F111F8A95E1F7C80104
:101EA000012E000CAA0BBB0B89839A83AB83BC83E6
:101EB000BC01CD010E94F4068F70813009F0E1C0B1
:101EC00062EF7FEF8FEF9FEFA114B10409F47CC0A4
:101ED000C8019D5F9C01990F440B550B29833A83E0
:101EE0004B835C83CA01B9010E94F406873119F063
:101EF0008C3109F05FC081E090E06C010F2C02C0D2
:101F0000CC0CDD1C0A94E2F780915C0490915D0496
:101F10008C219D21892B21F1C8019E5F9C01990F85
:101F2000440B550B2D833E834F835887CA01B9015B
:101F30000E94F40684FF43C040E16D817E818F8161
:101F400098850E945D0780915C0490915D049601E4
:101F5000209530958223932390935D0480935C04B5
:101F6000C801915E9C01990F440B550B2D833E8354
:101F70004F835887CA01B9010E94F4061D82880F59
:101F8000880F8E834D815E81A416B50610F4BE8243
:101F9000AD828F2D0E94CA085C0169817A818B8194
:101FA0009C810E94F406873149F18C3139F18F2DE3
:101FB0000E943B0B69EF7FEF8FEF9FEF05C083FD22
:101FC00015C060E070E0CB0128960FB6F894DEBF34
:101FD0000FBECDBFDF91CF911F910F91FF90EF907A
:101FE000DF90CF90BF90AF909F9008958F2D0E946B
:101FF0003B0B63EF7FEF8FEF9FEFE6CF80915E04A7
:1020000090915F048C219D21892BA1F18D819E816E
:10201000A816B906B0F24D815E81692D7E2D8F2DF7
:102020000E949C0913959801110F440B550B2983AD
:102030003A834B835C8340E269817A818B819C8106
:102040000E945D0769817A818B819C810E94F406E0
:102050008111F8CF80915C0490915D048C299D29B9
:1020600090935D0480935C044D815E81BA0180E0B1
:1020700090E0AACFAD81BE81AA16BB0608F489CF35
:10208000CACF6BEF7FEF8FEF9FEF9ECF6F927F9264
:102090008F929F92AF92BF92CF92DF92EF92FF9278
:1020A0000F931F93CF93DF93CDB7DEB72A970FB669
:1020B000F894DEBF0FBECDBF8987762E7A878A015E
:1020C000893008F0CEC024E0829F700111243FEFD8
:1020D000E31AF30A93E0EE0CFF1C9A95E1F7C701AF
:1020E0000F2C000CAA0BBB0B89839A83AB83BC8398
:1020F000BC01CD010E94F4068F70813009F0B5C09B
:1021000062EF7FEF8FEF9FEF0115110509F454C0C7
:10211000C701925E9C01990F440B550BCA01B9018E
:102120000E94F406682E81E090E05C01098402C000
:10213000AA0CBB1C0A94E2F7C7019D5F9C01092E03
:10214000000C440B550B29833A834B835C83945ECC
:102150009C01990F440B550B2D833E834F83588769
:1021600089850E9433096C0169817A818B819C8108
:102170000E94F4068731A9F18C31B9F4C114D1045D
:1021800009F042C089850E94CA084C016D817E8198
:102190008F8198850E94F406282F30E0322F222765
:1021A000330F330F82169306E1F489850E943B0BAF
:1021B00069EF7FEF8FEF9FEF2A960FB6F894DEBF9F
:1021C0000FBECDBFDF91CF911F910F91FF90EF9088
:1021D000DF90CF90BF90AF909F908F907F906F9047
:1021E000089580915E0490915F048A219B21892B40
:1021F00039F0C114D10441F460E070E0CB01DCCFD0
:10220000C114D10409F4ACCF40E0562D550F550F41
:102210000417150708F4A8018A01C416D50608F4A6
:102220008601A801672D7A8589850E943E0AF3946C
:10223000C701FF0CAA0BBB0B89839A83AB83BC83BA
:1022400040E4BC01CD010E945D0769817A818B81E8
:102250009C810E94F4068111F8CFB80180E090E0E3
:10226000ABCF6FEF7FEFCB01A7CF6BEF7FEF8FEFA0
:102270009FEFA2CF9F92AF92BF92CF92DF92EF9249
:10228000FF920F931F93CF93DF93CDB7DEB72A97BB
:102290000FB6F894DEBF0FBECDBFF82E962EE72EF8
:1022A0006A0129873A87580128E06FEF7FEFCB0159
:1022B0002F1508F422C134E0F39E800111240F5F32
:1022C0001F4F83E0000F111F8A95E1F7C801012E0F
:1022D000000CAA0BBB0B89839A83AB83BC83BC0124
:1022E000CD010E94F4068F708250990B039708F07D
:1022F00024C162EF7FEF8FEF9FEFC114D10409F487
:10230000FCC0E985FA8580819181A281B381892B06
:102310008A2B8B2B09F48BC0A114B10409F494C04F
:10232000C8019D5F9C01990F440B550B29833A838B
:102330004B835C83CA01B9010E94F406823409F020
:1023400090C0C801945F9C01990F440B550B2D83DD
:102350003E834F83588724E030E049855A856D815C
:102360007E818F8198850E944A08C801905F9C01F8
:10237000990F440B550B2D833E834F8358874B2D6C
:102380006D817E818F8198850E945D07C8019F5E67
:102390009C01990F440B550B2D833E834F83588727
:1023A0004A2D6D817E818F8198850E945D07C801CD
:1023B000915E9C01990F440B550B2D833E834F83F7
:1023C0005887CA01B9010E94F4061D82880F880F40
:1023D0008E834D815E81C416D50610F4DE82CD82D7
:1023E00081E090E05C010F2C02C0AA0CBB1C0A9497
:1023F000E2F78F2D0E94CA086C0169817A818B8176
:102400009C810E94F406882309F49CC080915E049C
:1024100090915F048A219B21892B61F18D819E819E
:10242000C816D90668F560E070E0CB0166C0698126
:102430007A818B819C810E94F40682FD6DCF64EFCE
:102440007FEF8FEF9FEF59C069817A818B819C81EB
:102450000E94F40682FD64CF65EF7FEF8FEF9FEF60
:102460004CC08F7E823209F46CCF69EF7FEF8FEF23
:102470009FEF43C0AD81BE81CA16DB0608F4B9CF19
:102480004D815E81692D7E2D8F2D0E949C09C80192
:1024900093959C01990F440B550B29833A834B83E9
:1024A0005C8340E269817A818B819C810E945D0717
:1024B00069817A818B819C810E94F4068111F8CF19
:1024C0001E5FC801110FAA0BBB0B89839A83AB83D4
:1024D000BC8369817A818B819C810E94F40684FF90
:1024E0001EC040E169817A818B819C810E945D07D9
:1024F000AD81BE81BD0180E090E02A960FB6F894D0
:10250000DEBF0FBECDBFDF91CF911F910F91FF9026
:10251000EF90DF90CF90BF90AF909F90089583FF92
:10252000D8CF48E069817A818B819C810E945D07C8
:1025300063EF7FEF8FEF9FEFE0CF6BEF7FEF8FEFDA
:102540009FEFDBCF6CEF7FEF8FEF9FEFD6CF2F9218
:102550003F924F925F926F927F928F929F92AF9233
:10256000BF92CF92DF92EF92FF920F931F93CF9380
:10257000DF93CDB7DEB763970FB6F894DEBF0FBE1B
:10258000CDBF582E462E7F875A0169010D871E87C1
:1025900028E06FEF7FEFCB01251508F42CC1852CC7
:1025A000912C34E0539E300111244FEF641A740AC9
:1025B00043E0660C771C4A95E1F7C301072C000C39
:1025C000AA0BBB0B89879A87AB87BC87BC01CD015F
:1025D0000E94F40689878F708250990B039708F048
:1025E00060C162EF7FEF8FEF9FEFA114B10409F498
:1025F00002C17401EE0CFF1CF701E45BFB4F80810C
:102600009181892B09F0BDC081E090E01C01052C6F
:1026100002C0220C331C0A94E2F7C3019D5F9C01A7
:10262000990F440B550B288B398B4A8B5B8B852D6F
:102630000E9433098C01688979898A899B890E9463
:10264000F406882309F432C180915E0490915F04FE
:1026500082219321892B39F00115110539F460E0AD
:1026600070E0CB01C8C00115110509F38985877099
:1026700073949301770C440B550B29873A874B874A
:102680005C87833009F4D0C0843009F47DC0823087
:1026900009F0FDC0F701E45BFB4F80819181892B3C
:1026A000E9F548E050E0BE016F5F7F4F852D0E9445
:1026B0003E0A40E469857A858B859C850E945D078A
:1026C00069857A858B859C850E94F4068111F8CFF7
:1026D0008981D6018C938A8111968C9311978B8175
:1026E00012968C9312978C8113968C938D819E8178
:1026F000982789279827ED85FE8591838083F701A8
:10270000E45BFB4F8F8198859827892798279183D1
:10271000808380E8F401EC5BFB4F8083F701E45B8E
:10272000FB4F00811181A016B10608F48501A801B4
:10273000642D7F85852D0E943E0A40E469857A8557
:102740008B859C850E945D0769857A858B859C8534
:102750000E94F4068111F8CFF701E45BFB4F208162
:102760003181201B310B31832083F401EC5BFB4F63
:10277000232B11F0808181608083B80180E090E09C
:102780003AC000E010E072CFF701E45BFB4F8081BC
:102790009181892B19F642E050E0BE016F5F7F4FB7
:1027A000852D0E943E0A40E469857A858B859C854B
:1027B0000E945D0769857A858B859C850E94F40659
:1027C0008111F8CF898190E0982F88272A812250A3
:1027D000330B820F931FF701E45BFB4F91838083E0
:1027E0008B3E954008F495CF852D0E943B0B67E109
:1027F0007CEF8FEF9FEF63960FB6F894DEBF0FBEAE
:10280000CDBFDF91CF911F910F91FF90EF90DF909F
:10281000CF90BF90AF909F908F907F906F905F9080
:102820004F903F902F900895F701E45BFB4F80811C
:102830009181892B09F072CF46E050E0BE016F5FB5
:102840007F4F852D0E943E0A40E469857A858B85FD
:102850009C850E945D0769857A858B859C850E9491
:10286000F4068111F8CF8981D6018C938A81119663
:102870008C9311978B8112968C9312978C8113965F
:102880008C93F701E45BFB4F8D819E813DCFB801B6
:10289000852D0E94E00AF701E45BFB4F1183008362
:1028A0004CCF6BEF7FEF8FEF9FEFA5CF6CEF7FEFFC
:1028B0008FEF9FEFA0CF0F931F93CF93DF9300D0A5
:1028C00000D000D0CDB7DEB7FB014D835E838930E9
:1028D00008F0ADC06830710508F0ABC0E858F54E9F
:1028E0000C94451AED81FE8190819130E9F421E04C
:1028F00030E002C0220F331F8A95E2F780915E0418
:1029000090915F04822B932B90935F0480935E04DD
:1029100081E00F900F900F900F900F900F90DF912C
:10292000CF911F910F910895911183C021E030E064
:10293000890102C0000F111F8A95E2F7C801809536
:10294000909520915E0430915F0482239323DCCF25
:1029500020915E0430915F04A90102C0569547950D
:102960008A95E2F7CA018170ED81FE818083D0CF24
:10297000F0E28F9FC0011124885F904E8C01990F67
:10298000220B330B09831A832B833C83C901B801C3
:102990000E94F406880F880FED81FE8110828183EA
:1029A000B7CFF0E28F9FC0011124885F914EE6CF30
:1029B000ED81FE8140814032E0F5F0E28F9FC00161
:1029C0001124885F9D4F8C01990F220B330B0983D3
:1029D0001A832B833C83C901B8010E945D0798CFFD
:1029E00010E2819FC0011124885F9D4F9C01990FC7
:1029F000440B550B29833A834B835C83CA01B9018D
:102A00000E94F4068F71B0CFED81FE81408140328B
:102A100080F4F0E28F9FC0011124885F934DD3CFE3
:102A200010E2819FC0011124885F934DDFCF8FEFAB
:102A300070CF86EF6ECFCF92DF92EF92FF920F931F
:102A40001F93CF93DF93CDB7DEB72A970FB6F894D5
:102A5000DEBF0FBECDBFFB018A01893008F0F3C095
:102A60003197E730F10508F0F0C0E058F54E90E0FE
:102A700025E0880F991F2A95E1F70C94451A885F85
:102A8000994E6C01990FEE08FF08C982DA82EB8239
:102A9000FC82D8014C91C701B6010E945D0737C086
:102AA000885F9A4EEECFFC013896FE83ED83DA0103
:102AB00011964C91885F9D4E6C01990FEE08FF08AE
:102AC000C701B6010E945D072D813E813D5EC901AF
:102AD000092E000CAA0BBB0B89839A83AB83BC83A2
:102AE000D8014C9169817A818B819C81D6CF885F96
:102AF000934F6C01990FEE08FF08C982DA82EB82CE
:102B0000FC8224E030E0C701B6010E944A0881E05F
:102B10002BC09C01285F3F4F3E832D83DA01119625
:102B20004C91885F9F4E6C01990FEE08FF08C7011A
:102B3000B6010E945D072D813E813F5EC8CFFC013A
:102B40003896FA87E9876F010D2C000CEE08FF0814
:102B5000C982DA82EB82FC82C701B6010E94F406C8
:102B60008F70813081F08BEF2A960FB6F894DEBF1C
:102B70000FBECDBFDF91CF911F910F91FF90EF90CE
:102B8000DF90CF90089589859A85915D9C01990F7A
:102B9000440B550B29833A834B835C83CA01B901EB
:102BA0000E94F406811153C089859A8593956C0122
:102BB000990FEE08FF08CD82DE82EF82F88642E2AE
:102BC000C701B6010E945D0729853A853E5FC901AC
:102BD000092E000CAA0BBB0B89839A83AB83BC83A1
:102BE0006D817E818F8198850E94F406882309F487
:102BF0008ECF69817A818B819C810E94F40683FF4C
:102C0000EFCF48E069817A818B819C810E945D07CA
:102C100083EFAACFDC011896BE83AD836D010D2C26
:102C2000000CEE08FF08C982DA82EB82FC82C70141
:102C3000B6010E94F4068F70813009F094CF2D8187
:102C40003E81315D44CF8FEF8FCF86EF8DCF8EEFFA
:102C50008BCFEF92FF920F931F93CF93DF9300D010
:102C600000D000D0CDB7DEB7E82EFB014D835E83E8
:102C700028E08FEF2E1508F4BFC06D30710508F005
:102C800031C1E957F54E0C94451A34E0E39E7001CA
:102C900011244FEFE41AF40AF3E0EE0CFF1CFA954E
:102CA000E1F7C701FF0CAA0BBB0B89839A83AB83A7
:102CB000BC83BC01CD010E94F406807FAD81BE8142
:102CC0008C9381E099C0B0E2EB9EC0011124885F33
:102CD000994E9C01990F440B550B29833A834B83E2
:102CE0005C83CA01B9010E94F406E8CFB0E2EB9E12
:102CF000C0011124885F9A4EECCFB4E0EB9E7001C6
:102D00001124EFEFEE1AFE0AE3E0EE0CFF1CEA9549
:102D1000E1F7C7019E5E9C01990F440B550BCA0158
:102D2000B9010E94F406182F3DEEF31AC701FF0CFB
:102D3000AA0BBB0B89839A83AB83BC83BC01CD01F7
:102D40000E94F406212F30E0322F2227280F311D58
:102D5000AD81BE812D933C93B4CFB0E2EB9EC00118
:102D60001124885F934F9C01990F440B550B2983C5
:102D70003A834B835C8324E030E04D815E8169813E
:102D80007A818B819C810E94C8079BCF34E0E39EAF
:102D9000700111244FEFE41AF40A73E0EE0CFF1CEB
:102DA0007A95E1F7C701905F9C01990F440B550B91
:102DB000CA01B9010E94F406182F3FEEF31AB6CFEC
:102DC000B4E0EB9E800111240F5F1F4F53E0000F12
:102DD000111F5A95E1F79801012E000C440B550B79
:102DE00029833A834B835C83CA01B9010E94F406AC
:102DF0008F70813071F08BEF0F900F900F900F90CC
:102E00000F900F90DF91CF911F910F91FF90EF9056
:102E10000895115DC801110FAA0BBB0B89839A831A
:102E2000AB83BC83BC01CD010E94F40690E0AD8170
:102E3000BE818D939C9345CF8E2D0E94CA08ED8153
:102E4000FE81918380833DCFB0E2EB9EC0011124CF
:102E5000885F9C4F3ECF0E2D10E0B4E0EB9E9001BA
:102E600011242F5F3F4F43E0220F331F4A95E1F7B4
:102E7000C901330FAA0BBB0B89839A83AB83BC8335
:102E8000BC01CD010E94F40680FF04C08E2D0E947B
:102E90003309CDCFF801EE0FFF1FE45BFB4F8081BC
:102EA0009181CDCF0E2D10E0F4E0EF9EC0011124F2
:102EB000019623E0880F991F2A95E1F79C01990F4D
:102EC000440B550B29833A834B835C83CA01B901B8
:102ED0000E94F406813009F48ECFF801EC5BFB4FC1
:102EE0008081ECCE8EEF88CF1F920F920FB60F929B
:102EF00011242F933F934F935F936F937F938F93FF
:102F00009F93AF93BF93EF93FF9368E170E08DECD5
:102F100093E00E946102FF91EF91BF91AF919F9169
:102F20008F917F916F915F914F913F912F910F9072
:102F30000FBE0F901F90189584B780E090E0089521
:102F4000F894A895E0E6F0E0808188618083808134
:102F50008962808380818064808378940895FC01F5
:102F600080818111FECF81E080830895FC01108271
:102F70000895CF92DF92EF92FF926A017B01E09178
:102F80006F01F0917001EF3FFE0781F0FF27EE0F18
:102F9000FF1FEE0FFF1FEB59FB4F408151816281F4
:102FA0007381C416D506E606F70680F4282F30E0B4
:102FB00094E0899FF0011124EB59FB4FC082D1822C
:102FC000E282F3823093700120936F01FF90EF90C3
:102FD000DF90CF900895CF92DF92EF92FF92809191
:102FE0006F0190917001AAE28F3F980781F4FF90E2
:102FF000EF90DF90CF900895A29FF001A39FF00D76
:103000001124E958FE4F17A216A28FEF9FEFC09030
:103010006004D0906104E0906204F09063049C012D
:103020003327F901EE0FFF1FEE0FFF1FEB59FB4F88
:103030004081518162817381C416D506E606F70688
:10304000D8F69093700180936F01D1CF0F931F93A7
:103050000091600410916104209162043091630436
:10306000400F511F621F731F0E94B917E0910001AA
:10307000F091010182E090E097A386A30E947E195F
:103080001F910F910895EC01E8A5F9A5099581E03C
:1030900090E09FA38EA3FFCFFC01958F848F17A292
:1030A00016A20895EF92FF920F931F93CF93DF9391
:1030B000FC01DA01C90126173707D0F114964D91AA
:1030C0005C91159763E478E1172F9A01215031093B
:1030D0000D90BC91A02DA20FB31F20E030E0281767
:1030E000390719F481E090E025C03097D9F32F5FBC
:1030F0003F4FB183A083ED012197D383C2836C93AB
:10310000C281D3817E0101E0E01AF108F382E282FC
:103110001883C281D3817E0101E0E01AF108F382B5
:10312000E282188204A0F5A1E02DA40FB51FD7CF2D
:1031300080E090E0DF91CF911F910F91FF90EF9091
:10314000089521E030E0FC0137A326A30895A09163
:103150000001B09101019496ED91FC919597EA17C9
:10316000FB0719F480E090E0089586A197A1892BD0
:1031700039F4F0930101E093000181E090E00895BB
:1031800004A0F5A1E02DEBCFFC01262F90816181F9
:103190009617A0F48381A82FB0E01296AA0FBB1F48
:1031A000AE0FBF1F2C9311967C939F5F90838F5F10
:1031B0000E94391A938381E090E0089580E090E0C6
:1031C0000895FC01208140E050E0222389F08281B3
:1031D000A82FB0E01296AA0FBB1FAE0FBF1F4D91D4
:1031E0005C918F5F61810E94391A92832150208304
:1031F000CA010895FC0181E090E02081222311F0B2
:1032000080E090E00895FC0181E090E03181208130
:10321000231710F480E090E0089561E170E086EEFD
:1032200093E00E946102209A219A6FE170E088EF9A
:1032300093E00E94610248EE53E060E070E080E0BD
:103240000E9426186EE170E088E194E00E9461021D
:10325000ECCF80916E01813029F4289A80E0809330
:103260006E010895289881E0FACF8091640481303E
:1032700029F4299A80E0809364040895299881E0D4
:10328000FACFFF93EF93DF93CF93BF93BFB71F9214
:103290001124C0916004D0916104E0916204F09126
:1032A00063042196E11DF11DC0936004D093610475
:1032B000E0936204F0936304C091FA32C33059F092
:1032C000C395C093FA32BFBF1F90BF91CF91DF91DA
:1032D000EF91FF9118951092FA32BFBF1F90BF91E6
:1032E000CF91DF91EF91FF91F093FB32FEE7FF93D7
:1032F000F9E1FF93F091FB3218950000FF93EF93F3
:10330000DF93CF93DFB7E0916A05E03031F0DFBFA4
:10331000CF91DF91EF91FF910895DF93E3E9F9E118
:10332000EF93FF930895F894EF6FE0936A05789414
:10333000C0910001D09101010C821D8211240F90D7
:103340002E823F82488659866A867B868C869D8639
:10335000AE86BF86C88AD98AEA8AFB8A0C8B1D8B07
:103360002E8B3F8B488F598F6A8F7B8F8C8F9D8FD1
:10337000AE8FBF8F8F9188A38F9189A38F918AA3DE
:103380008F918BA30F920DB60A820EB60B820E940C
:10339000EB170E94A718892BD1F3C0910001D0919F
:1033A00001010A800DBE0B800EBE0F900FBE0C8077
:1033B0001D802E803F80488459846A847B848C845D
:1033C0009D84AE84BF84C888D988EA88FB880C892C
:1033D0001D892E893F89488D598D6A8D7B8D8C8DF5
:1033E0009D8DAE8DBF8DEAA1FBA1EF93FF93E8A168
:1033F000F9A1EF01FF91F894E0E0E0936A05EF9105
:10340000789408950E942E0261E170E085EB91E0CE
:103410000E94610287E791E00E944C18209173019D
:103420003091740141E751E061E070E087E791E09D
:103430000E945218892BB1F06CE170E087EC91E0AA
:103440000E9461020E9488006CE170E084EE91E0CD
:103450000E94610261E270E081E092E00E946102FC
:103460000E947E196EE270E083E292E00E946102A7
:10347000FFCF991B79E004C0991F961708F0961B9F
:10348000881F7A95C9F780950895EE0FFF1F059064
:10349000F491E02D09946817790768F4FB01DC01C9
:1034A000E40FF51FA40FB51F02C002900E92415009
:1034B0005040D8F708950C945D1AFB01DC0102C05E
:1034C00001900D9241505040D8F70895F894FFCFE5
:1034D0006A056E057F057A05840589058C059B05BF
:1034E000B105C505C805CC056C05D005D605DF05B9
:1034F0007214A814B814D114D814F01404151015AB
:103500003F1550155315771589159F150A16451641
:10351000631676167D16AD16C6167217E0161C17C2
:08352000461724172B17521760
:103528000201000000000000000000000000000090
:103538000000000000000000000000000000000083
:1035480000000000000077010100000000020000F8
:1035580000000000010257353530300000008702B6
:10356800C702C802C60288028B020000000000C021
:1035780000F4010000000000000100010029190109
:10358800F40100000000000001000100351901FFEE
:10359800FF690401000001000000000000000000B5
:1035A8000000000000000000000000000000000013
:1035B8000000000000000000000000770100000D7E
:1035C8001944656661756C74204953522063616CB7
:1035D8006C65642100555341525420496E697469E1
:1035E800616C697A65640054696D657220696E69F9
:1035F8007469616C697A6174696F6E207374617241
:103608007465640054696D657220696E69746961D6
:103618006C697A6174696F6E2073746F7070656419
:10362800005363686564756C6572207374617274A5
:10363800696E672E2042657374206F66206C75630F
:103648006B2100456E746572656420746865206539
:1036580072726F722073746174652E20536F6D657A
:103668007468696E672077656E742077726F6E670D
:103678002E00507265706172696E6720746F2073D6
:103688006569202D207365745F7379735F74696D44
:1036980065720073656920636F6D706C6574652071
:1036A8002D207365745F7379735F74696D6572003B
:1036B80053657474696E672073797374656D2074CB
:1036C800696D65722E0053797374656D2074696D28
:1036D8006572207365742E00456E7465726564208A
:1036E800736F6674776172652074696D657220699D
:1036F8006E697469616C697A65720054696D657286
:1037080020616464656420746F206E65787420702D
:103718006F736974696F6E0054696D6572206164B6
:1037280064656420746F206C6173742061766169CC
:103738006C61626C6520706F736974696F6E00529A
:1037480065616368656420656C73652E2E2E206341
:103758006F6E74696E75696E670045786974696E15
:103768006720736F6674776172652074696D65721E
:1037780020696E697469616C697A657200456E7456
:103788006572656420736F66747761726520746909
:103798006D6572207374617274004578697465642C
:1037A80020736F6674776172652074696D65722025
:1037B800737461727400456E746572656420736F0A
:1037C8006674776172652074696D65722073746FB1
:1037D800700045786974656420736F6674776172E8
:1037E800652074696D65722073746F700057617419
:1037F8006368646F672072657365742064657465B7
:10380800637465642E00456E7465726564206D612D
:10381800696E207461736B00456E746572696E67BA
:10382800207461736B20736C656570202D206D6149
:10383800696E207461736B0045786974696E6720DE
:103848007461736B20736C656570202D206D6169E0
:083858006E207461736B000027
:00000001FF
